:020000040001F9
:10C00000A04F00207DC5010085C5010087C5010046
:10C0100089C501008BC501008DC50100000000002D
:10C020000000000000000000000000008FC50100BB
:10C0300091C501000000000093C5010095C50100F5
:10C0400097C5010097C5010039CF01005DCC010003
:10C0500071CC010097C5010065C6010097C50100BC
:10C0600097C5010097C5010097C5010097C501005C
:10C0700097C5010097C5010097C5010097C501004C
:10C0800097C501008DC8010097C5010097C5010043
:10C090009DCC010097C50100A5CC010097C501000A
:10C0A00097C5010097C5010097C5010097C501001C
:10C0B00097C5010097C501000000000000000000C6
:10C0C00097C5010097C5010097C5010085CC010007
:10C0D00097C5010097C5010097C501000000000049
:10C0E0000000000000000000000000000000000050
:10C0F0000000000000000000000000000000000040
:10C10000000000000000000000000000000000002F
:10C11000000000000000000000000000000000001F
:10C40000DFF80CD000F0FEF800480047DD0902001C
:10C41000A04F0020401E00BF00BF00BF00BF00BFF4
:10C4200000BF00BF00BF00BF00BF00BF00BF00BF14
:10C4300000BF00BF00BF00BF00BF00BF00BF00BF04
:10C4400000BF00BF00BF00BF00BF00BF00BF00BFF4
:10C4500000BF00BF00BF00BF00BF00BF00BF00BFE4
:10C4600000BF00BF00BF00BF00BF00BF00BF00BFD4
:10C4700000BF00BF00BF00BF00BF00BF00BF00BFC4
:10C4800000BF00BF00BFC5D170470000401E00BF05
:10C4900000BF00BF00BF00BF00BF00BF00BF00BFA4
:10C4A00000BF00BF00BF00BF00BF00BF00BF00BF94
:10C4B00000BF00BF00BF00BF00BF00BF00BF00BF84
:10C4C00000BF00BF00BF00BF00BF00BF00BF00BF74
:10C4D00000BF00BF00BF00BF00BF00BF00BF00BF64
:10C4E00000BF00BF00BF00BF00BF00BF00BF00BF54
:10C4F00000BF00BF00BF00BF00BF00BF00BFC5D16D
:10C5000070470000401E00BF00BF00BF00BF00BF5B
:10C5100000BF00BF00BF00BF00BF00BF00BF00BF23
:10C5200000BF00BF00BF00BF00BF00BF00BF00BF13
:10C5300000BF00BF00BF00BF00BF00BF00BF00BF03
:10C5400000BF00BF00BF00BF00BF00BF00BF00BFF3
:10C5500000BF00BF00BF00BF00BF00BF00BF00BFE3
:10C5600000BF00BF00BF00BF00BF00BF00BF00BFD3
:10C5700000BF00BF00BFC5D170470000064880471C
:10C5800006480047FEE7FEE7FEE7FEE7FEE7FEE7B8
:10C59000FEE7FEE7FEE7FEE7EDCC010001C4010087
:10C5A00040EA01039B0703D009E008C9121F08C035
:10C5B000042AFAD203E011F8013B00F8013B521EB5
:10C5C000F9D27047D2B201E000F8012B491EFBD22C
:10C5D00070470022F6E710B513460A46044619468E
:10C5E000FFF7F0FF204610BD30B50446002003469B
:10C5F00000E05B1C934203D2E05CCD5C401BF8D0B2
:10C6000030BD0000064C074D06E0E06840F0010335
:10C6100094E8070098471034AC42F6D3FFF7F4FED5
:10C62000CC3F0200EC3F020030B58C1810F8012B13
:10C6300012F00F0301D110F8013B120906D110F8D6
:10C64000012B03E010F8015B01F8015B5B1EF9D1DF
:10C6500001E001F8013B521EFBD1A142E6D30020CC
:10C6600030BD00002DE9F04F87B00027BA464FF4E7
:10C67000807006900125002412E0069805F0A2F9CA
:10C6800040B100BF60480068284018B1069805F026
:10C690008BF92F436D000698001D80B20690641C34
:10C6A000082CEAD34FF4BE7005F08CF948B14FF472
:10C6B000BE7005F079F947F0004700BF53480068A5
:10C6C0008246F8B2F8B1012500241AE005EA070015
:10C6D000A8B100BF4E4850F82400C0F3042006461D
:10C6E00000BF4B4850F82400C0F30140804620466C
:10C6F00001F0D0FF814641463046C84700BF6D007B
:10C70000641C082CE2D307F00040002879D04FF0D9
:10C71000000B00200590401E049000BF4FF0000B5E
:10C72000002457E03B48005D0390039820F0C006CA
:10C7300038480057401C00284BD00120B0400499D5
:10C740000840002845D003984FEA9019304601F080
:10C75000E9FF804601F09EFF0290029810B9B9F1FE
:10C76000030F35D1012000FA06F5B9F1030F02D10C
:10C7700005982843059000BF274850F82600C0F3CD
:10C78000014800BF05EA0A0010B1B8F1020F05D058
:10C7900005EA0A00D8B9B8F1030F18D1B9F1030FAF
:10C7A0000FD1B8F1020F01D1032000E00220019067
:10C7B0003046019905F0B0F80BF1010000F0FF0BD5
:10C7C00000BF029818B149463046029A904700BF10
:10C7D00000BF641C042CA5D3BBF1000F0DD000BF1B
:10C7E0000A4909680846504503D14FF0000B03E0A1
:10C7F00007E082460599049100BFBBF1000F8DD17F
:10C8000000BF07B0BDE8F08F046300401005005082
:10C81000106500408C2900200007005000F01F0226
:10C8200001219140024A430942F823107047000059
:10C8300080E200E000F01F020121914042099200D5
:10C8400002F1E022C2F800117047000000F01F0260
:10C8500001219140024A430942F823107047000029
:10C8600000E200E010B5002807DA4A07140E054A76
:10C8700000F00F031B1FD45403E04A07130E024AB3
:10C88000135410BD18ED00E000E400E010B50020E6
:10C890000949086000210948C0F84411C0F848114E
:10C8A000C0F84C1100200549C1F8000102493C398B
:10C8B000086006F0BFFC10BD4011014000100140AF
:10C8C0002DE9F04704468946164600F041FB04EB8B
:10C8D0004401564800EBC100007D00F0030002282F
:10C8E00027D004EB4401514800EBC100D0F8108080
:10C8F00004EB44014D4800EBC100C068A8EB000008
:10C90000451E002D06DA04EB4401484800EBC10047
:10C9100080680544AE420CDD04EB4401434800EB63
:10C92000C100007D00F0030010B90020BDE8F087D1
:10C930002E460EB90020F9E7002700BF04EB4401A2
:10C940003A4800EBC100D0F8108004EB44013748AE
:10C9500000EBC100C068A8EB0000451E002D06DA00
:10C9600004EB4401314800EBC1008068054404EB4E
:10C9700044012E4800EBC10004EB440281682B48BF
:10C9800000EBC200C068081AA84201DD28460CE08E
:10C9900004EB4401254800EBC10004EB440281682C
:10C9A000224800EBC200C068081A0546B54201DA09
:10C9B000284600E03046054604EB44021B4901EBE3
:10C9C000C20104EB44034A68184901EBC301C9687A
:10C9D00050182A464946FFF7E3FD2F44A944761B29
:10C9E00004EB4401114800EBC100C068411904EB9D
:10C9F00044020E4800EBC200C16004EB44010B4846
:10CA000000EBC100C16804EB4402084800EBC2001F
:10CA10008068814206D1002104EB4402034800EB08
:10CA2000C200C160002E89D138467FE7CC210020AA
:10CA300070B505460C46204600F0ABFB0646324674
:10CA400021462846FFF73CFF70BD0FB438B50446B9
:10CA500006A800906A462046059900F003F838BC05
:10CA60005DF814FB2DE9F04F99B081460D46144650
:10CA700003A814904020159000201690CDF86090E7
:10CA8000179000BF15F8016B06B9D4E0252E73D1BD
:10CA9000002700BF2E78232E12D02B2E0CD02D2E47
:10CAA00002D0302E10D103E047F001076D1C0CE0DE
:10CAB00047F002076D1C08E047F004076D1C04E016
:10CAC00047F008076D1C00E001E000BFE2E74FF00F
:10CAD000000800BF2E78302E01DB392E00DD07E084
:10CAE0006D1CA6F1300008EB880100EB4108F1E76E
:10CAF00000BF002013902E782E2E12D16D1C00BF87
:10CB00002E78302E01DB392E00DD09E06D1CA6F1F8
:10CB10003000139901EB810100EB41001390EFE726
:10CB200000BF2E7800BF6C2E01D0682E02D115F800
:10CB3000016B00E000E0F6E700BF702E5BD008DC80
:10CB4000252E68D0582E35D0632E09D0642E67D19B
:10CB500013E0732E3CD0752E1DD0782E60D128E0C6
:10CB60002168081D2060D1F800A00AF0FF0B59468B
:10CB700014A800F0DDFA53E055E02168081D20609C
:10CB8000D1F800A0CDE900870A22514614A8139BD2
:10CB900000F0DFF944E02168081D2060D1F800A012
:10CBA000CDE900870A22514614A8139B00F046FAEB
:10CBB00036E000BF2168081D2060D1F800A0CDE953
:10CBC00000871022514614A8139B00F037FA27E083
:10CBD0002168081D2060D1F800B000BF1BF8016B70
:10CBE00006B906E0314614A800F0A2FA179800280A
:10CBF000F4DA00BF14E02168081D2060D1F800A01D
:10CC0000002008210B461022CDE90010514614A83F
:10CC100000F014FA04E0252114A800F089FA00BFFE
:10CC200000BF6D1C03E0314614A800F081FA17988C
:10CC30000028BFF627AF00BF179800280ADD169816
:10CC400020B103A94846169AFFF73AFEDDE916100F
:10CC500008441790179819B0BDE8F08F10B5024935
:10CC6000024803F0D8FC10BD982A00200030004094
:10CC700010B503494FF0402003F0CDFC10BD00007B
:10CC8000C02A002010B5034C2146034803F0B2FC33
:10CC900010BD0000E82A00200030024010B506F068
:10CCA000CFF910BD70B50B48006880B10948006825
:10CCB0008047044600BF25463DB100BF064A4FF4F9
:10CCC000B371284600F0B1FB00BF00BF01E003F0E4
:10CCD00039FC70BD9C210020683F020001480249D8
:10CCE000086070470090D0033022002010B502F099
:10CCF000D1FF10B182488349486702F0E3FF28B1B1
:10CD000081480068C0F342308049086003F004F8AD
:10CD100028B17F48006820F080707D49086003F0EA
:10CD200013F848B100207B4908604FF08041C1F8FA
:10CD300010017649091F086003F030F818B103208C
:10CD400072496431086003F041F868B10520724906
:10CD50000860012070497831086000206E49083170
:10CD600008603F20091F086003F048F8002855D0EC
:10CD70006A4800686A4908606848001D0068091D23
:10CD80000860664808300068091D086063480C3078
:10CD90000068091D0860614810300068091D0860BE
:10CDA0005E4814300068091D08605C48183000684F
:10CDB0005B492031086059481C300068091D086033
:10CDC000564820300068091D086054482430006827
:10CDD000091D0860514828300068091D08604F4847
:10CDE0002C300068091D08604C48303000684C4900
:10CDF00040310860494834300068091D08604748E0
:10CE000038300068091D086044483C300068091D3E
:10CE10000860424840300068091D086002F010FFB9
:10CE200030B139481430006800F04F003D490860C7
:10CE300037487438006840F4700035497439086028
:10CE400000BF00BF00BFBFF34F8F00BF00BF00BFD8
:10CE500000BF00BF00BFBFF36F8F00BF00BF00BFA8
:10CE60003148006800F0004030B92F48001D0068CC
:10CE700000F00040002840D001202C49086000BF8D
:10CE80002B4800680028FBD015202749086000BF08
:10CE9000274800680028FBD015212348001D0160A9
:10CEA00000BF234800680028FBD000201F4908600D
:10CEB00000BF1F4800680028FBD000BF00BF00BFB4
:10CEC00000BF00BFBFF34F8F00BF00BF00BF1048BF
:10CED000F038006800F4E06016490843001D0C4972
:10CEE000F039086000BF00BF00BFBFF34F8F00BF25
:10CEF00000BF00BF00BF00BFFDE7FFF7EFFE10BDA2
:10CF00000DF0ADBA00C00740440200103C050040DF
:10CF1000FCED00E00C01004010560040040400103D
:10CF200020C50040E40E00400012001004E501405E
:10CF300000E401400000FA0510B50448007F10B17C
:10CF400006F090FD01E006F0DDFC10BD9429002004
:10CF500070472DE9FC5F07460E4692469846DDE98C
:10CF60000C45002E01DA704200E0304683464FF057
:10CF7000010903E0BBFBFAFB09F10109D345F9D232
:10CF8000C84500D9C14634B1002E03DB05F00400CA
:10CF9000042800D1641E05F0020010B1B8F1000FA2
:10CFA00012D005F0010078B974B108E020213846AC
:10CFB00000F0BEF8F868002801DABDE8FC9F1CB15B
:10CFC0002046641E4845F1D8002E08DA76422D210D
:10CFD000384600F0ADF8F86800280CDAEDE705F007
:10CFE0000400042807D12B21384600F0A1F8F86886
:10CFF000002800DAE1E705F00200022814D105F06C
:10D00000010088B9B8F1000F0ED16CB107E03021F2
:10D01000384600F08DF8F868002800DACDE71CB13A
:10D020002046641E4845F2D84346524631463846AB
:10D03000CDE9004500F002F800BFBEE72DE9FE4F44
:10D0400081460F4614469846DDE90C5B01260197A0
:10D05000B24605E00198B0FBF4F001900AF1010A34
:10D060000198A042F6D2D04500D9C2460BF001008B
:10D07000E0B9DDB10BF00200022805D1B8F1000FD4
:10D0800002D13020009001E02020009009E04846C5
:10D09000009900F04DF8D9F80C00002801DABDE83D
:10D0A000FE8F1DB128466D1E5045F0D800E0664346
:10D0B000B7FBF6F0A04201D3012000E0002041467A
:10D0C000A8F10108012901DD012100E00021084348
:10D0D0000028ECD100BFB7FBF6F00290029800FBED
:10D0E0001677124A0298115C484600F021F8D9F8E8
:10D0F0000C00002800DA03E0B6FBF4F6002EEAD1BB
:10D1000000BF0BF0010078B175B108E0202148465E
:10D1100000F00EF8D9F80C00002800DABFE71DB1C6
:10D1200028466D1E5045F1D800BFB8E70C3F0200FD
:10D1300070B504460E46A568681C6168814206DB2E
:10D1400020684655681CA060E068401CE060D4E997
:10D15000011088420DD1A26821682069FFF7B0FB59
:10D16000A168884203D04FF0FF30E06001E000206A
:10D17000A06070BD02E008C8121F08C1002AFAD1E1
:10D1800070477047002001E001C1121F002AFBD147
:10D1900070470146002209B90020704700BF087897
:10D1A00000B902E0521C491CF9E700BF1046F4E741
:10D1B0002DE9FC41044688461646002537880020A4
:10D1C0003080606B68B1616B08783B4632464146FF
:10D1D00005F088FB054600BF15B12846BDE8FC8177
:10D1E00000BF206B58B13B4632464146206B06F0EB
:10D1F0009DF8054600BF0DB12846EFE700BF94F843
:10D200002E0060B194F82E003B463246414603F0B2
:10D21000DDFA054600BF0DB12846DFE700BF94F8F0
:10D220002D0050B13A463146404600F0D2FD054649
:10D2300000BF0DB12846D1E700BFA07850B13A46F3
:10D240003146404600F042FA054600BF0DB128467F
:10D25000C4E700BFE07860B1E17848B23B463246AF
:10D26000414602F01EFE054600BF0DB12846B5E757
:10D2700000BF606868B1616891F900003B463246C2
:10D28000414606F023FB054600BF0DB12846A5E741
:10D2900000BF208900280EDD43460622022104F14A
:10D2A0000800CDE9006706F015FD054600BF0DB189
:10D2B000284693E700BF208A00280EDD4346072258
:10D2C000032104F11000CDE9006706F003FD0546D7
:10D2D00000BF0DB1284681E700BF208B00280EDD7E
:10D2E00043461522142104F11800CDE9006706F029
:10D2F000F1FC054600BF0DB128466FE700BF206A6C
:10D3000058B13B4632464146206A01F0FAFB0546D9
:10D3100000BF0DB1284661E700BF606A58B13B46C7
:10D3200032464146606A03F0C7FE054600BF0DB1B4
:10D33000284653E700BF94F82C0000280BDD3B463D
:10D3400032464146204605F0E8FA054600BF0DB1D9
:10D35000284643E700BF207858B13B463246414655
:10D36000204603F0E4FE054600BF0DB1284635E730
:10D3700000BF284632E70146C87800F0040008B92B
:10D38000072070470020FCE730B5A7B0382119A866
:10D39000FFF71FF902208DF8640006208DF8670062
:10D3A000242110A8FFF715F901208DF84C004FF447
:10D3B000967014903C201590382102A8FFF709F9C7
:10D3C0000120ADF818000C49079100200B4B10AA62
:10D3D00002A9009019A800F0F9F9044600BF2546FB
:10D3E0003DB100BF06A240F27D21284600F01DF8A5
:10D3F00000BF00BF27B030BDEE200020951A02000C
:10D400002E2E5C2E2E5C2E2E5C6D61696E2E6300BE
:10D4100070B504460D4616460C2000F04DFE32460F
:10D420002946204600F012F870BDFEB504460E46AF
:10D430001546B0B2ADF80000019502946A4600218D
:10D4400044F20100FFF7E4FFFEBD000018B5012320
:10D4500000939DF800301E4B186059609A606FF47D
:10D460008043034463B1012B19D1194BDA60DB68A7
:10D470001B88174CA3612346DB685B68E3610EE001
:10D48000134B1A611B699B68114C636123461B692E
:10D490001B88A36123461B695B68E36100BF00BF73
:10D4A0000B4B1B680A4B5B68094B9B68084BDB689E
:10D4B000074B1B69064B5B69054B9B69044BDB699A
:10D4C00072B600BF9DF80030002BFBD162B618BDCC
:10D4D000082B00202DE9F04104460D46164604486D
:10D4E0000768324629462046B847BDE8F08100006B
:10D4F00018290020F8B505460C462778A06800EBEF
:10D500004000064951F820600548006800902A460E
:10D51000394604F108002369B047F8BD802A00208D
:10D520007021002010B504460748007800EB800207
:10D530000548001D00EB82012046FFF7DBFF0420B9
:10D5400005F03EFA10BD0000B429002010B50346D6
:10D550000C4600BF0B48006808B9082010BD00BF8A
:10D560000AB90720FAE70BB90720F7E71868007C2B
:10D5700008B10820F2E71968002008744C744A6169
:10D5800000BFEBE77C2100202DE9F04180460E46EC
:10D5900014461F46204600F0030109B9012100E0AE
:10D5A000002111B90720BDE8F08124B900201D49F0
:10D5B00008600720F7E705F0B9F81B48076003206B
:10D5C0001A49087017480460183400250DE0154901
:10D5D000096801EBC500002101704170867044604C
:10D5E00006EB460104EBC1046D1C032DEFDB0020AC
:10D5F0000F4908600F4908700F4908701420FFF7A1
:10D600000DF906211420FFF72DF91420FFF712F968
:10D61000404605F061F805F059F808490860002017
:10D62000C1E700007C210020942100207821002007
:10D6300080210020902100209121002084210020C1
:10D640002DE9F84304460D461746264600BF11480B
:10D65000006810B90820BDE8F88300BF0CB90820A5
:10D66000F9E7052D01D20720F5E7706908B9082010
:10D67000F1E7707C012801D1284600E000208046B7
:10D6800006F0E2FA814643462A463146009705F005
:10D6900071FDE0E77C21002070B50446254600BFFF
:10D6A0000948006808B9082070BD00BF0CB168695E
:10D6B00008B90820F8E70020287406F0C5FA0646E5
:10D6C000294605F085FDEFE77C210020F8B50546E9
:10D6D0000C4617462088001DB84201D90C20F8BD21
:10D6E000684679DF064600BF0EB13046F7E700BF57
:10D6F0000320218868542088401C2080192021881C
:10D7000068542088401C208020884119BDF8000002
:10D7100006F03EFA2188084420800020DFE7000060
:10D7200010B500224FF4A47102480068FFF788FF8B
:10D7300010BD0000203E02002DE9F04192B080466D
:10D740000D461F2011901090B8F1000F17D04046E1
:10D75000FFF711FE044600BF1CB1204612B0BDE821
:10D76000F08100BF11AA08A94046FFF721FD044639
:10D7700000BF0CB12046F1E700BF08AE02E0002672
:10D7800000201190ADB1284605F029FA044600BFEB
:10D790000CB12046E2E700BF10AA69462846FFF711
:10D7A00007FD044600BF0CB12046D7E700BF6F4617
:10D7B00002E0002700201090BDF84000C3B2BDF881
:10D7C0004400C1B23A46304672DFC7E72DE9F04760
:10D7D00004460F4615461E46DDF8208000BF14B9EA
:10D7E0000E20BDE8F08700BF00BF0DB90E20F8E79E
:10D7F00000BF002046490870464806604648C0F809
:10D800000080242229464548FEF7CAFE00F03EF972
:10D810004348444908604448886038214348FEF73B
:10D82000D8FE207841490870A0788870E078C870E8
:10D83000607848700846D4E90412C0E90412D4E9BB
:10D840000212C0E90212D4E90612C0E90612606AA7
:10D85000D8B137483549486236498160606A0088E6
:10D860003249496A0880606A80883049496A8880FC
:10D87000002005E0616A8968095C2E4A1154401C49
:10D880002A49496A89888142F4D8A06A20B32A4982
:10D890002A4881602549886227492448806A816036
:10D8A000A06A80882149896A8880A06A00881F4907
:10D8B000896A0880002005E0A16A8968095C1E4A1F
:10D8C0001154401C1949896A89888142F4D894F816
:10D8D0002C00164981F82C00206A58B118481349C9
:10D8E0000862206A4088096A4880206A00880F49D7
:10D8F000096A0880606820B112480C494860606875
:10D90000486039460948FFF717FF8146484668E7EF
:10D91000182100201021002014210020E4260020DE
:10D92000182700200827002038270020AC260020D8
:10D9300058270020642700209027002084270020FB
:10D940001C2100202021002070B5044620881028CA
:10D9500004D0112809D01B2863D11BE0A07D012829
:10D9600002D1A088304908805CE000202F4908706F
:10D97000A0882D49098888420BD1012000F08EF83B
:10D98000054635B12A48006818B128462849096873
:10D99000884747E0207A002842D1264800780128AD
:10D9A00006D0022811D003281CD0042836D129E043
:10D9B000022000F073F8054635B11D48006818B123
:10D9C00028461B490968884729E0032000F066F8CB
:10D9D000054635B11648006818B12846144909684B
:10D9E00088471CE0032014490870042000F056F812
:10D9F000054635B10E48006818B128460C4909683B
:10DA000088470CE000200C4908700C48006820B1E1
:10DA10000846007809490968884700E000BF00BF50
:10DA200000E000BF00BF70BD2221002019210020AE
:10DA300014210020182100200C210020102100209A
:10DA400070B504460025022C02D0032C15D100E04D
:10DA500000BF0B48007878B10020094908700948D8
:10DA6000007800F01BF8054635B10748006818B18A
:10DA7000284605490968884700E000BF00BF70BD1F
:10DA80000421002018210020142100200248002138
:10DA900001608180817170470521002030B587B019
:10DAA00005469548057002F017FA28B10120934900
:10DAB0000870002007B030BDFFF7E8FF90484078BD
:10DAC00018B18D48007801280DD08D48807818B1A4
:10DAD00089480078012806D08948807888B186482E
:10DAE000007802280DD18748006838B101208649A6
:10DAF0000870082083490968884702E000208249AD
:10DB000008707D480078012809D17D48407818B117
:10DB10007E4804F0C5F910B90220774908707648AC
:10DB20000078022809D17648807818B1774804F047
:10DB3000B7F910B90320704908707148007B30B9FB
:10DB40006D480078032802D104206B4908706C48A6
:10DB5000007E40B968480078042804D10020664956
:10DB600008706B49087067480068A8B1624800787F
:10DB7000032803D06048007804280DD1604800785D
:10DB800050B16448007838B9012063490870072013
:10DB90005C490968884702E000205F490870182145
:10DBA00001A8FEF716FD00208DF8040002908DF804
:10DBB0000C00049050480078012806D0022813D0A9
:10DBC000032825D0042876D150E05048401E02900A
:10DBD00001208DF804000020ADF81600ADF8140007
:10DBE00001204B49087071E04848401E0290012016
:10DBF0008DF804004248008980B2ADF81600404814
:10DC0000808880B2ADF814000220414908705DE0C0
:10DC10003B48808A80B2ADF816003948008A80B24D
:10DC2000ADF814003D4806F0EAF8D8B13448007861
:10DC3000C0B138480078A8B902208DF80C003748E8
:10DC4000049004203649C87000213548FFF774FD60
:10DC5000044600BF0CB120462CE700BF05202C492C
:10DC6000087002E003202A4908702FE02448808BC6
:10DC700080B2ADF814002248008C80B2ADF81600D6
:10DC8000264806F0BCF8E0B11D480078C8B121482C
:10DC90000078B0B902208DF80C00204804900420D0
:10DCA0001F49C87000211E48FFF746FD044600BF0B
:10DCB00014B12046FEE608E000BF062014490870B3
:10DCC00002E004201249087000E000BF00BF0A48CB
:10DCD000007838B101A873DF044600BF0CB12046BC
:10DCE000E8E600BF0748006820B109480078054908
:10DCF000096888470020DDE6182100200421002063
:10DD0000E4260020102100201B21002006210020F5
:10DD10000C210020192100201A21002008270020B2
:10DD2000AC26002070B505461C2229461248FEF795
:10DD300037FC002011490870286850B11048296844
:10DD40000A680260496841607ADF04463CB12046B7
:10DD500070BD0B487BDF04460CB12046F8E74FF658
:10DD6000FF7008490880002007490870074A002111
:10DD70000748FFF7EBFBEBE7B02700203821002036
:10DD8000242100202E2100202C210020B93B02005C
:10DD9000703E020010B504462088102806D01128D5
:10DDA00008D012280ED0502810D107E0204603F0EA
:10DDB000EDFE0CE0204603F005FF08E0204603F0EE
:10DDC00021FF04E0204603F0D5FE00E000BF00BFC5
:10DDD00010BD2DE9FC4105460C4617462088093048
:10DDE000B84202D90C20BDE8FC81684671DF0646C6
:10DDF00000BF0EB13046F6E700BF08202188685406
:10DE00002088401C20801B20218868542088401CCA
:10DE1000208020882844DDF801100160BDF805103D
:10DE200081802088801D20809DF8000018B9002086
:10DE30002188685402E00120218868542088401C11
:10DE400020800020CFE7000010B50446204601F0F6
:10DE500033F92046FFF79EFF204603F03DFE2046A3
:10DE6000FFF772FD2146024800F004F810BD0000E3
:10DE7000EE23002070B505460C462088102804D0FB
:10DE8000112805D050282ED106E0A08828802BE04C
:10DE90004FF6FF70288027E0A07C0D2808D113A141
:10DEA0000020FEF7C5FD04F0A1FE0120184908700E
:10DEB000A07C052802D1012016490870A07C022808
:10DEC00003D115A10020FEF7B3FDA07C012803D1EA
:10DED00018A10020FEF7ACFDA07C18B91AA1002003
:10DEE000FEF7A6FD00E000BF00BF70BD7072657058
:10DEF0006172696E6720746F2064756D7020646153
:10DF0000746120746F205254542E2E2E0A0000008B
:10DF1000F3200020F220002063656E7472616C2093
:10DF200064657669636520636F6E6E6563746564AE
:10DF30000A0000006E6F74696669636174696F6ED0
:10DF400073204F4E0A0000006E6F7469666963614A
:10DF500074696F6E73204F46460A000070B586B034
:10DF600038480068059000BF00234822364905A8BC
:10DF700004F06AFD054600BF2E463EB100BF33A245
:10DF800040F2EF113046FFF750FA00BF00BF00BF6C
:10DF90006A460121002004F037FD044600BF2546F3
:10DFA0003DB100BF29A240F2F5112846FFF73DFA26
:10DFB00000BF00BF00BF294E304604F01DFC0446E0
:10DFC00000BF25463DB100BF20A24FF4FC7128469A
:10DFD000FFF72BFA00BF00BF00BF01208DF80C0037
:10DFE000684604F003FD044600BF25463DB100BF6E
:10DFF00016A240F2FD112846FFF717FA00BF00BF36
:10E00000174804F0E7FC044600BF25463DB100BFB9
:10E010000EA240F201212846FFF707FA00BF00BF19
:10E02000104804F043FD044600BF25463DB100BF43
:10E0300006A240F205212846FFF7F7F900BF00BF0E
:10E0400006B070BD243E0200042600202E2E5C2E59
:10E050002E5C2E2E5C6D61696E2E6300E81F002021
:10E0600049DE0100412F02007CB50446A1786A46D2
:10E070000D4803F0B1FF0546ADB96178C1EBC101B0
:10E080000A4A02EB81001C231A46694604F0E2F8B2
:10E0900005460748807A074951F8202021466846FE
:10E0A0009047054600BF7CBD3C210020CC280020C5
:10E0B00018290020843E020070B50446002505485A
:10E0C000007800F0010018B1204600F005F8054680
:10E0D000284670BDFC2000202DE9F04104460026B2
:10E0E0000025182C7DD2DFE804F00C1D1E68B4EE6C
:10E0F000EDECEBEAE9E8E7E6E5E4E3E2E1E0DFDEC8
:10E10000DDDC00BFFD4801684FF49010884300F447
:10E110009010FB4908600020091D086000BFF94805
:10E12000047098E200BF00BFF44801684FF480100B
:10E13000884300F49010F24908600020091D08602F
:10E1400000BFEF48001F006880F4901000F400301A
:10E1500088B100BF4FF40030091F08600020091D7E
:10E16000086000BF022C02D14FF4E16001E04FF4DF
:10E170007A60054610E000BF4FF40030E049091D09
:10E1800008600020091F086000BF022C01D1C820D0
:10E1900001E04FF4C8700546DA4804706420B5FB0E
:10E1A000F0F0D949096800FB01F700223946D74849
:10E1B0000068FFF745FA06464DE200BFCF48016808
:10E1C0004FF48010884300F49010CD49086000207F
:10E1D000091D086000BFCA48001F006880F4901045
:10E1E00000E037E200F4003088B100BF4FF40030A7
:10E1F000091F08600020091D086000BF032C02D120
:10E200004FF4487001E04FF47A60054610E000BF1B
:10E210004FF40030BA49091D08600020091F08604A
:10E2200000BF032C01D1C82001E04FF4C87005469F
:10E23000B44804706420B5FBF0F0B349096800FBF2
:10E2400001F700223946B1480068FFF7F9F90646A0
:10E2500001E200BFA94801684FF48010884300F430
:10E260009010A74908600020091D086000BFA4485D
:10E27000001F006880F4901000F4003020B300BF4D
:10E280004FF40030091F08600020091D086000BF1E
:10E29000042C02D14FF47A6001E04FF47A60054615
:10E2A00024E0CBE1C9E1B3E19DE187E179E13FE120
:10E2B0003DE13BE139E137E12AE105E1EDE0D3E081
:10E2C000BBE0A1E06CE022E000BF4FF400308C49DD
:10E2D000091D08600020091F086000BF042C02D13E
:10E2E0004FF4C87001E04FF4C870054685480470CB
:10E2F0006420B5FBF0F08449096800FB01F70022B7
:10E30000394682480068FFF79BF90646A3E100BF43
:10E310007A4801684FF48010884300F490107849DF
:10E3200008600020091D086000BF7548001F0068D4
:10E3300080F4901000F4003080B100BF4FF4003042
:10E34000091F08600020091D086000BF052C01D1CD
:10E35000C82001E04FF47A60054610E000BF4FF49A
:10E3600000306749091D08600020091F086000BFD0
:10E37000052C01D1C82001E04FF4C8700546614862
:10E3800004706420B5FBF0F05F49096800FB01F7F9
:10E39000002239465D480068FFF752F906465AE107
:10E3A00000BF564801684FF48010884300F4901075
:10E3B000534908600020091D086000BF5048001F35
:10E3C000006880F4901000F4003040B100BF4FF4BA
:10E3D0000030091F08600020091D086009E000BF27
:10E3E0004FF400304649091D08600020091F0860ED
:10E3F00000BF444804704448002201684348006854
:10E40000FFF71EF9064626E100BF3C4801684FF4BD
:10E410008010884300F49010394908600020091DDD
:10E42000086000BF00BF4FF4003008600020091FE3
:10E43000086000BF334804700DE100BF3049091F78
:10E4400008684FF4003181432D4A116000F4003117
:10E45000121D116000BF2C48002201682B48006883
:10E46000FFF7EEF80646F6E000BF2549091F0868E9
:10E470004FF400318143224A116000F40031121D33
:10E48000116000BF2048006800EB800100221F4897
:10E490000068FFF7D5F80646DDE000BF1849091F00
:10E4A00008684FF400318143154A116000F40031CF
:10E4B000121D116000BF1448002201681348006853
:10E4C000FFF7BEF80646C6E000BF0D49091F086801
:10E4D0004FF4003181430A4A116000F40031121DEB
:10E4E000116000BF0848006800EB80010022074867
:10E4F0000068FFF7A5F80646ADE000000021002007
:10E5000008050050F4200020F8200020683E02009A
:10E5100000BF4FF49010524908600020091F0860A6
:10E5200000BF5048047096E000BF00BF00BF00BFAE
:10E530004D480068FFF7B0F80646C4F111050DB369
:10E5400006BB4FF4801049490860012D0FD9C8203F
:10E5500068436421B0FBF1F04549096800FB01F70D
:10E560000022394640480068FFF76AF8064600BFB7
:10E570003E48006800F49010394908600020091FE7
:10E5800008600DE000BF3948006800F4901034497D
:10E59000091F08600020091D086000BF334908609A
:10E5A00059E000BF4FF490102D49091F086000206A
:10E5B000091D086000BF2B4804704CE000BF4FF4F9
:10E5C00080102749091F08600020091D086000BF4E
:10E5D00000BF4FF4003008600020091F086000BF32
:10E5E0002048047037E000BF4FF480101C49091F19
:10E5F00008600020091D086000BF00BF4FF4003014
:10E6000008600020091F086000BF1648047022E05F
:10E6100000BF4FF480101249091F08600020091D37
:10E62000086000BF00BF4FF4003008600020091FE1
:10E63000086000BF0B4804700DE000BF00BF4FF43E
:10E640009010074908600020091F086000BF0548B6
:10E65000047000E000BF00BF3046BDE8F08100005C
:10E660000C050050F42000206C3E02000021002028
:10E67000F82000204FF0FF31054A42F8201008280A
:10E6800004DBFF23A0F1080150325354704700000F
:10E690003C2900200146024850F821007047000044
:10E6A0003C2900202DE9F04F03460C464FF0FF397E
:10E6B0000AB1002000E0082084460AB1082000E0EA
:10E6C0000C208046614624E0154850F82100401C8B
:10E6D000F0B91D460846274616464FFA80FBDFF87C
:10E6E00040A00AF1300A0AF805B0DFF834A04AF871
:10E6F00020704EB94FFA85FBA0F1080ADFF820E040
:10E700000EF1500E0EF80AB000BF4FFA81F902E088
:10E71000491C4145D8D300BF4846BDE8F08F0000F2
:10E720003C29002001460148405670476C290020D2
:10E730002DE9F84F3A48007800EB80013848001D79
:10E7400000EB8104E668A06800EB4000354901EB6E
:10E750008000B0F80890A06800EB400001EB80005A
:10E76000B0F80AA0A06800EB400001EB8000406810
:10E77000009003F022FDB6FBF0F100FB116008B938
:10E78000012000E000208046009809FB0A0760880D
:10E790003044A1884518002023490860B8F1000FD3
:10E7A00004D003F00AFD6188884209D0B8F1000F57
:10E7B00003D0BD4201D1A08810B1A068032809D1BF
:10E7C00003F0FBFCB6FBF0F018490860032004F0EE
:10E7D000F7F822E003F0F1FCA1883144B1FBF0F23C
:10E7E00000FB121080081249086003F0E6FCB5FB3C
:10E7F000F0F100FB115008B9012000E00020834631
:10E80000BD4206D0BBF1000F03D1B9B2A8B204F0EB
:10E81000AFFB022004F0D4F800BFBDE8F88F000081
:10E82000B4290020802A00206021002064210020DB
:10E830005C21002010B50848007800EB80010648F4
:10E84000001D00EB81042078042802D000F0BAF803
:10E8500001E004F005FB10BDB429002010B50F48FD
:10E86000007800EB80010D48001D00EB81046088FA
:10E870000B4908602078012804D0032805D004281B
:10E8800009D105E004F0ECFA06E0FFF751FF03E0E0
:10E8900005F084F900E000BF00BF10BDB4290020DE
:10E8A0007021002010B50348407808B1FFF7D6FF6B
:10E8B00010BD0000B4290020002200EB80031149A4
:10E8C00001F8232000EB800301EB83014A80022240
:10E8D00000EB80030B4901EB83018A60002200EB0F
:10E8E0008003084901EB8301CA6000EB80030549FE
:10E8F00001EB83010A6100EB8003024901EB830114
:10E900008A807047B82900202DE9F04706460F4657
:10E9100090469946DDF820A0204840780A2839D052
:10E920001E4800781D49497844180A2C00D30A3C37
:10E9300004EB84011948001D00F8216004EB8401F8
:10E9400000EB8100C0F8108004EB84011348001D27
:10E9500000EB8100D7E90012C0E9021204EB840148
:10E960000E48001D00EB8100A0F8029004EB84012A
:10E970000A48001D00EB8100A0F804A00748407879
:10E98000401C064948700648007808B9FFF766FF42
:10E99000002500E004252846BDE8F087B4290020C2
:10E9A0005821002010B50020054908704870002447
:10E9B00003E02046FFF780FF641C0A2CF9D310BD4A
:10E9C000B429002010B50848007800EB8002064802
:10E9D000001D00EB82010020FEF78CFD00F006F820
:10E9E000002003F0EDFF10BDB429002010B5094947
:10E9F0000878FFF761FF07484078401E05494870D6
:10EA000008460078401CC0B208700A2801D10020D6
:10EA1000087010BDB42900202DE9F04782461F4838
:10EA20000068002836D01D480068056803F04EFED7
:10EA300007461B4804682146384604F0BFFAC61C46
:10EA40001848007808B903F053FEAE4201D22846B8
:10EA500000E03046044424F07F44204603F030FEBA
:10EA600003F034FE80463946404604F0A7FA00F130
:10EA700003093946204604F0A1FA814509D903F07B
:10EA800025FE814603F01CFE2F20FDF73BFD04F020
:10EA90001DFC01E003F04AFEBDE8F0878021002064
:10EAA000842100209821002001460888062808DBE0
:10EAB0000888B0F5486F06DD08884FF6FF7290426F
:10EAC00001D0072070474888062808DB4888B0F541
:10EAD000486F06DD48884FF6FF72904201D007204C
:10EAE000F0E708884FF6FF72904208D048889042BD
:10EAF00005D008884A88904201DD0720E2E700201F
:10EB0000E0E72DE9F04106460D4614469846208878
:10EB1000801D404502D90C20BDE8F0813046FFF74A
:10EB2000C3FF074600BF0FB13846F5E700BF052019
:10EB3000218868542088401C208012202188685435
:10EB40002088401C208022885119308805F020F848
:10EB500021880844208022885119708805F018F80F
:10EB60002188084420800020D6E7000010B5044624
:10EB700000BF04A240F257112046FEF756FC00BF2A
:10EB800010BD00002E2E5C2E2E5C2E2E5C6D616959
:10EB90006E2E630030B587B01C216846FDF719FD65
:10EBA000002000904FF4203001904FF4702002902C
:10EBB00003208DF80C000020ADF80E008DF8100039
:10EBC0000A4805900A4806906846FFF7ABF80446E5
:10EBD00000BF25463DB100BF06A24FF4B7712846DD
:10EBE000FEF723FC00BF00BF07B030BD351B02009D
:10EBF0006DEB01002E2E5C2E2E5C2E2E5C6D61695D
:10EC00006E2E630038B51B4801F072FD20BB1A4818
:10EC1000007848B119484069E8B1002000901748D1
:10EC200041696846884716E01548007810B91348CE
:10EC3000456801E0114885680022294611480068AE
:10EC4000FEF7FEFC044634B10C48806918B10B484D
:10EC500081692046884709E00848406930B10120B1
:10EC60000090064841696846884700BF0020024975
:10EC7000087038BD3021002038210020B027002046
:10EC80002C210020703E020070B503460C4608207F
:10EC9000002117E001EB41050C4E06EB8505AD7A2E
:10ECA000254075B14FF6FF75AB4206D001EB41052B
:10ECB00006EB85052D899D4202D11160002003E0FD
:10ECC0000520491C0029E5D000BF70BD0C2900209B
:10ECD000012100EB40020D4B03EB820291724FF6D3
:10ECE000FF7100EB400203EB82021181FF2100EB78
:10ECF000400203EB8202D17200EB40011A4602EBA4
:10ED0000810100220A608A808A7170470C290020E4
:10ED100010B51A48007800F0080058BB1848006881
:10ED2000401C174908601748006818B1042004F017
:10ED3000FDF821E001F0EEFC18B1022004F0F6F835
:10ED40001AE01148006890B10C48007800F001000A
:10ED500048B90A48006840F00100084908600020EE
:10ED600004F0E4F808E0032004F0E0F804E004F024
:10ED7000B1F801E004F0BEF810BD000074210020DD
:10ED8000642100205C2100206021002010B50B4888
:10ED9000007800F0080070B90848007800F0020020
:10EDA00028B10648006840F00100044908600220CC
:10EDB00004F0BCF801E004F09DF810BD74210020BF
:10EDC0002DE9FC4104460D46A1786A462B4803F024
:10EDD00003F90746002F4ED1607800EB4000284928
:10EDE00001EB8000807A00F04000402801D0022D25
:10EDF00001D1244E04E0012D01D1234E00E0234E29
:10EE0000A078C0EBC000224A02EB800100231C2244
:10EE10006846B0470746EFB9022D1BD0607800EB7B
:10EE20004000174901EB8000807A20F040006178B3
:10EE300001EB4101124A02EB810188726078C0EB5C
:10EE4000C000144A02EB80011C231A466846B047F2
:10EE5000074600BF022D0ED0207800EB40000E497F
:10EE600001EB8000807A0D4951F820202146684648
:10EE70009047074600BFBDE8FC8100003C21002010
:10EE80000C2900207D25020059240200F12D0200EA
:10EE900008280020CC28002018290020743E0200F9
:10EEA00070B503460A4648F24300002135E0C1EB45
:10EEB000C1041C4D05EB8404A47EFF2C2CD11478D6
:10EEC000022C18D0C1EBC10405EB8404A47E24F00D
:10EED0000204C1EBC105134E06EB8505AC76C1EB10
:10EEE000C104354605EB8404156825619588A58223
:10EEF0009579A5750DE0C1EBC1040A4D05EB8404BD
:10EF0000A47E24F00104C1EBC105064E06EB850585
:10EF1000AC761970002002E0491C0729C7D300BF56
:10EF200070BD0000082800202DE9F04105460E467E
:10EF300017464FF0050800241AE03DB9C4EBC400A1
:10EF40000E4901EB8000008BB8420CD07DB1C4EBC0
:10EF5000C4010A4A02EB810101F11000072229468F
:10EF6000FDF742FB18B934604FF0000802E0641C62
:10EF7000072CE2D300BF4046BDE8F08108280020FE
:10EF80007CB50546A9B26A46074803F025F8044651
:10EF900044B97421684603F071F8044614B9284650
:10EFA00002F08AFF20467CBD3C2100202DE9F04183
:10EFB00006460F46144600BF25463DB100BF05A2D8
:10EFC0004FF40D712846FEF730FA00BF00BF002055
:10EFD000BDE8F0812E2E5C2E2E5C2E2E5C6D6169BC
:10EFE0006E2E63007FB50546039503F0EBF80446EB
:10EFF00000BF26463EB100BF29A240F24E21304656
:10F00000FEF713FA00BF00BF03A800F0BDFB0446E3
:10F0100000BF26463EB100BF21A240F2512130463A
:10F02000FEF703FA00BF00BF0020CDF805008DF801
:10F0300009009DF8050020F00100401C8DF8050036
:10F040009DF8050020F002008DF805009DF80500F0
:10F0500020F0700030308DF805009DF8050020F09C
:10F0600080008DF8050007218DF8061010218DF81D
:10F0700007100F48009001208DF8040069460D48E4
:10F0800000F034FD044600BF26463EB100BF04A296
:10F0900040F25F213046FEF7C8F900BF00BF7FBDD8
:10F0A0002E2E5C2E2E5C2E2E5C6D61696E2E630002
:10F0B000ADEF0100802000202DE9F0478EB004461E
:10F0C000FF200C904FF000094FF0000A00BFFE48EF
:10F0D000007810B90EB0BDE8F08700BF00BFFB4854
:10F0E000006800B9F6E700BF0BA800F041FB054639
:10F0F00000BF2E463EB100BFF54A40F6F111304642
:10F10000FEF793F900BF00BF00270025201D0990DE
:10F110002C20ADF82800FF208DF82E0000208DF85F
:10F120002C000D902088102813D0A0880DAA022151
:10F13000FFF7AAFD054665B90D9800EB4000E549CB
:10F1400001EB8000C07A8DF82E000D98C0B28DF8CA
:10F150002D00208819287DD008DC10280DD011281A
:10F1600079D0132878D0142877D1C7E01A2875D021
:10F170001E2874D05228F7D1C0E20DAE32460121CC
:10F180004FF6FF70FFF780FD8046B8F1000F08D101
:10F190000220316801EB4101CE4A02EB8101887205
:10F1A00001E04FF0040800BF4546002D62D14FF04A
:10F1B000010911208DF820000D98C0B28DF82D00A6
:10F1C000A0880D9901EB4101C24A02EB810108813F
:10F1D00002200D9901EB410102EB810188720D982B
:10F1E00000EB4000114601EB8001A2680A60A28991
:10F1F0008A80A07B8871E07D00F0010060B1E07D35
:10F20000B54901EB50000078FF280DD0E07D01EBFF
:10F21000500000780C9007E04FF6FF720CA904F143
:10F220000800FFF781FE054625BBDDE90C0101EB77
:10F230004101A84A02EB8101C8720D9800EB400021
:10F24000114601EB8000807A40F008000D9901EB37
:10F25000410105E01AE10EE099E05EE2E3E156E2E9
:10F2600002EB810188720C98C0B28DF82E000BA8B9
:10F27000FEF7FAFE52E20D9800EB4000954901EBD3
:10F280008000807A20F002000D9901EB4101914A43
:10F2900002EB810188720D9800EB4000114601EBF2
:10F2A0008000807A00F0080008280ED10D9800EB4D
:10F2B000400001EB8000807A00F0800080280FD1B0
:10F2C00000210BA8FFF77CFD0AE09DF82E00FF2827
:10F2D00006D09DF82E0002F0EFFDFF208DF82E00E5
:10F2E00010200D9901EB41017A4A02EB81018872ED
:10F2F0004FF0010912208DF820000FE20D9800EB6D
:10F300004000744901EB8000C07AFF2824D1228A92
:10F310000CA90020FFF708FE0546EDB9DDE90C0158
:10F3200001EB41016B4A02EB8101C8720D9800EBC1
:10F330004000114601EB8000807A40F008000D99F2
:10F3400001EB410102EB810188720C98C0B28DF88B
:10F350002E000BA8FEF788FE0D9800EB40005D49DB
:10F3600001EB8000C07AFF2805D00D98C0EBC000EB
:10F370005A4901EB800A0D99C1EBC101584B03EBCF
:10F380008102A0880023514686DF0546C6E113208E
:10F390008DF820000D9800EB40004E4901EB8000F5
:10F3A000807A40F004000D9901EB4101494A02EBDB
:10F3B000810188724FF001090D9800EB4000114661
:10F3C00001EB8000C07AFF2842D10D9800EB40008D
:10F3D00002EB80010CA8FFF763FD054665B90C98A8
:10F3E000C0B28DF82E00DDE90C0101EB4101394A74
:10F3F00002EB8101C87202E02F464FF001090020A4
:10F4000004900D9800EB4000324901EB8000C07A77
:10F41000C0EBC000324901EB80010591002106914B
:10F4200007910D98C0EBC0002C4901EB80000090C3
:10F430000020019002900390A0886B46234A121D81
:10F4400000217FDF054615B12F464FF000091CE073
:10F450000D9800EB40001F4901EB8000807A40F0DE
:10F4600040000D9901EB41011A4A02EB81018872BB
:10F4700016208DF82000A08800231A4685217FDF02
:10F48000054615B12F464FF0000947E10F48407A75
:10F4900020F001000D4948720D9800EB40000D4925
:10F4A00001EB8000807A20F004000D9901EB41010E
:10F4B000084A02EB8101887214208DF820004FF079
:10F4C0000109207A20B30DE04821002018290020EE
:10F4D0001C3F02000C29002049210020CC280020DC
:10F4E000082800200D9800EB4000114601EB800039
:10F4F000807A00F04000402809D00D9901EB4101CD
:10F5000002EB8101C87AFFF73BFD0646277A89E0C6
:10F51000607AC0F38000E0B39DF82E00FF2838D059
:10F520000D9800EB40008C4901EB8000807A40F0A0
:10F5300008000D9901EB4101874A02EB81018872B5
:10F54000607BC0F3400088B19DF82E00C0EBC00086
:10F55000824901EB8000807E20F001009DF82E1092
:10F56000C1EBC1017D4A02EB810188760D9800EB69
:10F570004000794901EB8000C07AFF2852D00D98F5
:10F5800000EB400011F82000022827D09DF82E0043
:10F5900000E047E0C0EBC000704901EB80000D992E
:10F5A00001EB41016C4A02EB81010A6802618A8821
:10F5B0008282897981759DF82E00C0EBC000674971
:10F5C00001EB8000807E20F002009DF82E10C1EB40
:10F5D000C101624A02EB810188761FE00D98C0EB01
:10F5E000C0005F4901EB8000408A9DF82E10C1EBFE
:10F5F000C1015A4A02EB810108839DF82E00C0EB3D
:10F60000C000114601EB8000807E20F001009DF8D3
:10F610002E10C1EBC10102EB8101887601210BA8FC
:10F62000FFF7CEFB7AE0207A0121B1EB101F43D126
:10F63000207A00F00F0001283ED10D9800EB400029
:10F64000454901EB8000807A00F00800082833D19A
:10F650000D9901EBC101434A02EB810101F1080060
:10F660001A21FCF7B6FF16208DF820000D9800EB4C
:10F670004000394901EB8000807A40F020000D996C
:10F6800001EB4101344A02EB810188720D9800EBD5
:10F690004000114601EB8000807A40F040000D9957
:10F6A00001EB410102EB810188722F48407A40F062
:10F6B00002002D4948721DE00D9800EB40002649DC
:10F6C00001EB8000807A40F080000D9901EB410150
:10F6D000214A02EB8101887215208DF82000224812
:10F6E000807A224A52F820100BA8884705460DB1AF
:10F6F00048F2410700274FF001090FE01A48807ACD
:10F700001A4A52F820100BA88847074606E0132033
:10F710008DF820004FF0010900E000BF00BFB9F1F3
:10F72000000F17D03A4608A90BA8FDF7D3FE9DF8A5
:10F73000200012280ED100BF0D9800EB40000649B2
:10F7400001EB8000807A012802D00D98FFF7C0FA03
:10F7500000BF00BF00BFBDE40C2900200828002026
:10F76000CC280020E828002018290020943E020020
:10F77000014611B948F20E007047FF20087048702A
:10F780008870C8700020F7E77FB506461EB948F2BA
:10F790000E0004B070BD002412E02046002100EBF2
:10F7A0004002344B43F8221000EB400203EB82028C
:10F7B000517200EB400203EB8202917200BF641CA5
:10F7C000002CEAD0002403E02046FFF781FA641CF5
:10F7D000002CF9D024212848FCF7FBFE002406E089
:10F7E000204602F069FBFF2024490855641C072CC1
:10F7F000F6D37420ADF80C000720ADF80E002048B9
:10F800000290204902A802F09FFD054625BB012079
:10F810001D490870307800BB00241BE0A1B26A4685
:10F82000184802F0D9FB05467DB9C4EBC401174A5C
:10F8300002EB810000231C22694602F00BFD054605
:10F840003DB100201049087006E000200E49087004
:10F8500002E0641C072CE1D309E0BDF80C00BDF800
:10F860000E20504381B2074802F008FC05462846A6
:10F870008FE7000018290020E828002049210020F7
:10F8800091F801003C210020482100200828002098
:10F890002DE9FF4F91B00F4692461D46DDF8789056
:10F8A00000BF8748006810B915B0BDE8F08F00BFF1
:10F8B000B9F1740F00D9F7E74FF0010B0DA8FFF76E
:10F8C00057FF064600BFB046B8F1000F07D000BF93
:10F8D0007C4A40F2A1514046FDF7A7FD00BF00BFA2
:10F8E00000208DF834008DF838000C95CDF82C9060
:10F8F000804614E01FFA88F108AA734802F06CFBF6
:10F90000064656B9082208A91198FCF76DFE20B9E1
:10F9100008F0FF008DF8360004E008F10108B8F1A6
:10F92000070FE7D300BF9DF83600FF2878D0032FDC
:10F930000AD1B9F1740F03D120208DF838009BE073
:10F9400040208DF8380097E06048281A1C21B0FB51
:10F95000F1F4072C1BD20AA80F90BAF1000F0ED1B8
:10F960009DF8360001218140594A1268114009B1C1
:10F97000012100E0002111B94FF0000B7CE09DF85F
:10F98000360004F00FF920208DF8380074E051485B
:10F99000281A1C21B0FBF1F4F4B90AA80F9020201A
:10F9A0008DF83800E0B28DF83500002004904A4907
:10F9B0000591C4EBC400474901EB800000909DF81D
:10F9C0003600C0EBC000414901EB80000190CDF84A
:10F9D00030D020200B904FE04048281A2421B0FB63
:10F9E000F1F4F4B930208DF83800E0B28DF835002C
:10F9F00001208DF8370004EB4400394901EB800009
:10FA0000807A00F00200022836D09DF8351001EB14
:10FA1000C101324A02EB81002421FCF7DAFD2BE020
:10FA20004CE04FF0000B40208DF838002D48854207
:10FA300003D103274FF0010B1EE09DF836002A4941
:10FA400051F82000A84217D14FF0010B0AA80F90DF
:10FA500000200EE09DF8361000EB4002204B03EB37
:10FA60008202D27A914203D1C1B28DF8351002E000
:10FA7000401C0028EED000BFBBF1010F1ED1032FA8
:10FA800006D19DF8380040F003008DF838000EE0F4
:10FA9000022F06D19DF8380040F001008DF83800A3
:10FAA00005E09DF8380040F002008DF838000AA803
:10FAB0000F9052460EA90DA8FDF70CFD00BFF3E60E
:10FAC000182900201C3F02003C21002008280020AB
:10FAD00044210020CC28002024290020E8280020F0
:10FAE0000C290020A43E0200EC27002010B502469D
:10FAF00000BF2848007810B948F2080010BD00BFC8
:10FB000012B948F20E00F9E711B948F20E00F5E714
:10FB1000086810B948F20E00F0E71F48006898BB6B
:10FB20001D4C086820602046D1F8054044604C7A9E
:10FB300004720879184CA0722046007A20F0010463
:10FB400015480472007A20F00200801C124C2072CA
:10FB50002046007A20F004040F480472C07920F097
:10FB60000100401C0C4CE0712046C07920F00200DE
:10FB7000801CE0712046C07920F004040648C4715E
:10FB800000201070002302E0FFE748F2040318464B
:10FB9000B4E700004821002018290020014614483D
:10FBA0000078144A127890421DD011480078401C09
:10FBB0000F4A107010460078022801D10020107002
:10FBC0000D480B4A127850F8220008600B4A08686A
:10FBD00012681044094A10601046006820F07F4007
:10FBE0001060012070470020086000BFFAE70000A5
:10FBF00090210020912100208821002084210020D4
:10FC000010B50C48007800F0080078B90A48006880
:10FC1000401C0949086000F07DFD10B9FEF70AFE9E
:10FC200006E00648007802F0CBFE01E001F034FA6D
:10FC300010BD000074210020642100205821002004
:10FC400013480078062820D11148001D007800F0E4
:10FC50000F00D0B90E480830007800F0F0003028CE
:10FC600001D1012070470A480830007800F0F00008
:10FC7000402801D10120F5E705480830007800F060
:10FC8000F000502801D10120ECE70020EAE7000055
:10FC9000E00F00F00A48007806280ED10848001D41
:10FCA000007800F00F0040B905480830007800F0F7
:10FCB000F000302801D1012070470020FCE700004F
:10FCC000E00F00F013480078062820D11148001DED
:10FCD000007800F00F00D0B90E480830007800F02E
:10FCE000F000302801D1012070470A480830007820
:10FCF00000F0F000402801D10120F5E70548083068
:10FD0000007800F0F000502801D10120ECE700203D
:10FD1000EAE70000E00F00F00A48007806280ED15C
:10FD20000848001D007800F00F0040B90548083071
:10FD3000007800F0F000302801D101207047002049
:10FD4000FCE70000E00F00F013480078062820D1FF
:10FD50001148001D007800F00F00D0B90E4808309F
:10FD6000007800F0F000302801D1012070470A48E7
:10FD70000830007800F0F000402801D10120F5E7BC
:10FD800005480830007800F0F000502801D101202B
:10FD9000ECE70020EAE70000E00F00F00A480078F6
:10FDA00006280ED10848001D007800F00F0040B969
:10FDB00005480830007800F0F000302801D101201B
:10FDC00070470020FCE70000E00F00F00A480078D0
:10FDD00006280ED10848001D007800F00F0040B939
:10FDE00005480830007800F0F000302801D10120EB
:10FDF00070470020FCE70000E00F00F00A480078A0
:10FE000006280ED10848001D007800F00F0040B908
:10FE100005480830007800F0F000502801D101209A
:10FE200070470020FCE70000E00F00F0F0B503464B
:10FE300000241FE0124E306806689E4203D906680F
:10FE4000F61A06601AE006689B1B06683444002612
:10FE500006600B4E35680A4FC6693E60C66846B1FB
:10FE60000E1926F07F464660C66886601668C66131
:10FE7000156000BF024800680028DBD100BFF0BD5C
:10FE80008021002010B50446A07EFF2802D0A07E6D
:10FE900001F07CFD002060762071201D21688847DC
:10FEA00010BD30B504461088C01C984201D90C2002
:10FEB00030BD0220158848551088401C1080012054
:10FEC000158848551088401C108015884C5510889E
:10FED000401C10800020EBE738B5002000906846F9
:10FEE00002F064F80446082C02D00CB1012038BDA1
:10FEF000082C06D1684600F071F804460CB10020C9
:10FF0000F5E7009808B10120F1E70020EFE70000D5
:10FF100010B5044614B1112C08D100E00AE00648DF
:10FF2000006840F008000449086003E02046FDF73F
:10FF3000F9FA00BF00BF10BD7421002010B50D48B4
:10FF40000068401C0B490860B0F57A7F0DD00A4864
:10FF50000078022804D00848007802F031FD07E05C
:10FF60000648007802F0E2FF02E00D20FDF7DAFA21
:10FF700010BD0000682100205821002059210020D8
:10FF800010B50A480078012804D0022808D00328B8
:10FF900009D102E002F06AFF06E0FFF731FE03E05C
:10FFA00002F0B8FF00E000BF00BF10BD58210020E4
:10FFB00070B50446204628DF0546FFF7A9FF70BD4F
:10FFC0002DE9F04104460D461646324629462046A4
:10FFD00029DF0746FFF79CFFBDE8F081014609B91C
:10FFE000032070470248406D08600020F9E70000D8
:10FFF000282B00203EB500BF9DF8000020F00F0028
:020000040002F8
:10000000401C00909DF8000020F0F000103000909F
:1000100000BF112217A168467CDF044600BF2546B9
:100020003DB100BF18A240F225112846FDF7FDF9A9
:1000300000BF00BF0020019002900C20ADF804002A
:100040002020ADF806000020ADF808004FF4C8707D
:10005000ADF80A0001A87ADF044600BF25463DB18D
:1000600000BF09A240F22F112846FDF7DEF900BFBC
:1000700000BF3EBD4A6F686E436F756761724D6524
:100080006C6C656E630000002E2E5C2E2E5C2E2E96
:100090005C6D61696E2E6300014600207047024668
:1000A0000020704702460020704700002DE9F04113
:1000B00004460027B8460026607800EBC0003749A8
:1000C00001EB8000406848B3607800EB40003449A1
:1000D00001EB8000807A00F0800080281ED16078DB
:1000E00000EB400001EB8000807A00F040004028E7
:1000F00014D0607800EBC000284901EB800000F1CB
:100100000807607800EBC00001EB800080881FFAD0
:1001100080F8607800EBC00051F82060617801EB56
:1001200041011F4A02EB81010889334642463946A4
:10013000A9DF05460B2D0CD10126617801EB4101A9
:10014000174A02EB81010889334642463946A9DF46
:1001500005460DB148F24105012E1BD1617801EB36
:1001600041010F4A02EB810108894FF6FF720C2111
:10017000A7DF054675B143F20200854208D0082D7D
:1001800006D0801C854203D0112D01D0002501E04E
:1001900048F241052846BDE8F0810000E82800202B
:1001A0000C29002070B505460C46617801EBC101B1
:1001B0000E4A02EB810038232422294602F04AF835
:1001C000064686B9607800EBC000084901EB800064
:1001D0004068401C38B90020617801EBC101034A36
:1001E00002EB81014860304670BD0000E828002025
:1001F0002DE9F04188B007460C4603261A200790E7
:10020000617801EB4101324A02EB810108893346F2
:1002100007AA6946AADF8046B8F1000F54D1617879
:1002200001EBC1012B4A02EB810101F10800BDF88D
:100230001C206946FCF7D8F9A0B9607800EB4000B3
:10024000234901EB8000807A00F0020002283BD0B5
:10025000617801EBC1011F4A02EB81002421FCF708
:10026000B8F931E0607800EBC0001A4901EB80007A
:10027000406808B1184D00E0184D607800EBC000F0
:10028000144941F82060BDF81C00617801EBC10100
:10029000104A02EB81014860617801EBC10102EB79
:1002A000810101F10800BDF81C206946FCF778F9CE
:1002B000607800EBC000074A02EB8001382324225B
:1002C0003846A847804600BF002008B0BDE8F0814E
:1002D0000C290020E82800207D2502005924020076
:1002E00070B505462846FFF7E1FE044614B900BF85
:1002F00000200446204670BD70B505460E463146C6
:100300002846FFF74FFF044614B900BF00200446FB
:10031000204670BD70B505460E4631462846FFF7AB
:1003200067FF044614B900BF00200446204670BD94
:1003300010B51648007800F0080018BB00F016FA57
:1003400060B10020124908601048006840F00100C8
:100350000E490860002002F0E9FD15E000F0DAF92E
:1003600030B100200A490860022002F0DFFD0BE0F6
:100370000848006818B1032002F0D8FD04E002F03C
:10038000A9FD01E002F0B6FD10BD000074210020BF
:100390005C21002060210020F7B50C461546694617
:1003A000204601F073F8064626B1224606A1002039
:1003B000FCF74BFB1DB1204601F0CEF802E02046D1
:1003C00001F05EF8FEBD00006572726F7220696E0A
:1003D000697469616C697A696E672070696E20253D
:1003E000640A00000EB537208DF8080000200123B4
:1003F00002AA292100903A4801F022FA01230DF1C6
:1004000009022921364801F005FA9DF8092035A195
:100410000020FCF71AFB39A000680190002002239D
:1004200001AA292100902E4801F00AFA9DF809003E
:1004300080281EDB0120324908700F2001F08CF863
:1004400030A10020FCF7F4FA3E208DF808000120CE
:100450008DF809000020022302AA292100902048DB
:1004600001F0EEF99DF8092029A10020FCF7EDFA32
:1004700035E09DF80900402831DB9DF8090080280F
:100480002DDA00201E4908700F2000F0F9FF25A189
:100490000020FCF7CDFA3E208DF8080000208DF8F2
:1004A0000900022302AA292100900D4801F0C8F991
:1004B0000020012302AA29210090094801F0C0F977
:1004C000012302AA2921064801F0A4F99DF8082079
:1004D00017A10020FCF7B9FA0320FDF7DFFA0EBDE3
:1004E000183E0200616E79206F72206E6F206D6F72
:1004F00074696F6E203D2025640A00003F400000B3
:10050000EC2000206E6F206D6F74696F6E0A000022
:1005100073686F756C642062652030312025640A31
:1005200000000000616E79206D6F74696F6E0A00C3
:1005300073686F756C642062652030302025640A12
:1005400000000000F8B52548007800B9F8BD24483F
:10055000006808B9012000E0002005462148006835
:1005600008B9012000E00020064600BF9DB968469A
:1005700052DF0446052C01D101250BE034B100BF48
:10058000194A93212046FCF750FF03E014490098D4
:100590000968884700BFCEB91448008800906946B2
:1005A0001348006861DF0446052C01D101260CE0E8
:1005B00034B100BF0C4AB2212046FCF736FF04E0FC
:1005C0000B48006807490968884700BF0DB106B1AC
:1005D00000E0CBE700BF00BFB8E70000A02100208B
:1005E000B0210020AC210020683F0200A82100209B
:1005F000A421002070B505460C464FF484712846AE
:1006000001F0F2F92146284602F0B3FE10B9204667
:10061000FFF738FC70BD7FB505460C4694F8210005
:1006200094F82010CDE9001004F12602D11E2846CE
:10063000E36902F0D6FF00B17FBD94F8230048BB08
:10064000207B022802D0207B032823D1E169206986
:1006500081421FD16069E061E07B84F82000207E48
:10066000C0F3401084F82100207B03280AD194F8BD
:100670002100009094F8203029462046E26903F0DA
:1006800041F833E094F8203029462046E26902F030
:1006900031FF2BE0D4E90412E06801AB07C394F802
:1006A0002300A0B100BFD5F8C414C5F8C41400BF1E
:1006B000084600F0020119B101218DF8001005E093
:1006C00000F0040111B102218DF8001002E00020B9
:1006D0008DF80000002084F82400207E00F0040043
:1006E00018B96846D4E90021904700BF00BFA3E7CE
:1006F00001464888064A1288904206DB4888044A28
:100700005288904201DC012070470020FCE7000085
:10071000242100202DE9F0411148007800EB8001F0
:100720000F48001D00EB8105EF6801F046FD698868
:100730003944AA881144491EB1FBF0F60948006803
:10074000B04206D307480068B04204D106480068AA
:1007500008B9012400E000242046BDE8F081000033
:10076000B429002064210020602100202DE9F041FF
:100770000F48007800EB80010D48001D00EB81055B
:10078000EE6801F01AFD69883144AA881144491EB7
:10079000B1FBF0F70748006828B107480068B84285
:1007A00001D1012400E000242046BDE8F0810000D2
:1007B000B42900206021002064210020014601F0BE
:1007C000030008B9012070470020FCE730B504465B
:1007D0001088C01C984201D90C2030BD0220158819
:1007E00048551088401C10801C20158848551088DA
:1007F000401C1080012C06D0022C08D0032C0AD0FB
:10080000042C10D10BE00020158848550DE0012084
:100810001588485509E002201588485505E0032051
:100820001588485501E00720D7E700BF1088401C15
:1008300010800020D1E700002DE9F0412148D0F8D8
:100840000080214806782FE02048006800EBC604AD
:10085000257825E005EB4501606800EBC107681CC1
:10086000C5B2A078A84200D100253878022802D06D
:10087000032812D103E0786802F046FC0EE007E09E
:1008800010490868002101740E4AC169116000BF57
:100890000C4800680028F3D100E000BF00BF00BF93
:1008A0006078A842D6D100BF301EA6F10101CEB2B9
:1008B000CAD104480068404502D00120BDE8F0815B
:1008C0000020FBE780210020782100207C210020EF
:1008D0002DE9F04706463B48D0F800903A480778A3
:1008E00061E03A48006800EBC70555E016B13446B0
:1008F000E66923E02A7802EB4202696801EBC20054
:100900002978491C29702978AA78914201D10021BF
:10091000297044680178012901D1217C01B13BE0B3
:1009200081686160C168A1600169E1604169A1619C
:100930002749097809B10021616000BF2549606835
:100940000968401A20F07F402349884208D2214993
:100950006068096802F032FBA1680844206010E07A
:100960001C486168006802F029FB8046A068404589
:1009700004D9A068A0EB0800206001E000202060FE
:1009800000BF00206060A060012020740020E061B2
:10099000204602F085FB00BF002EA7D12878697899
:1009A0008842A3D100BF381EA7F10101CFB298D170
:1009B00004480068484502D00120BDE8F0870020C7
:1009C000FBE7000080210020782100207C2100200E
:1009D0009921002084210020FFFF7F0092B000F0C9
:1009E00045FD10B900F018FD0446082C03D1FBA109
:1009F0000020FCF71DF8FE48006811900122082134
:100A00001198FFF7C9FC012203211198FFF7C4FCDC
:100A1000012207211198FFF7BFFC0122F548016868
:100A20001198FFF7B9FC0022F34801681198FFF70D
:100A3000B3FC0122F14801681198FFF7ADFC0122D7
:100A4000EF4801681198FFF7A7FCE948001D00680E
:100A50001090EC4A10A9EC48006800F071FC0446C4
:100A60001CB1EAA10020FBF7E3FF0121E648006882
:100A700000F00AFC00BFED4AED49EE4800F072FDBF
:100A80008346BBF1000F07D000BFEBA240F21B3141
:100A90005846FCF7CAFC00BF00BFEBA000680F90EF
:100AA0000FAF0DF13808E9A000680D900DF1340981
:100AB0004B4642463946032002F004F89DF839209F
:100AC000E3A10020FBF7C1FF9DF83900E849087059
:100AD0004B4642463946082001F0F4FF9DF8392084
:100AE000E4A10020FBF7B1FF9DF83900E949087047
:100AF000E9A000680C900DF1300A072000F0C0FC5E
:100B000000200346012251460090CA4800F0D4FD5F
:100B100000E020BFE14800780028FAD0072000F06C
:100B20001BFD0020DD490870DDA000680B900BA8BC
:100B30000A90072000F0A4FC002003460222009047
:100B4000BC480A9900F0B8FD00E020BFD348007807
:100B50000028FAD0072000F0FFFC0020CF490870E1
:100B6000072000F08DFC0020034601225146009032
:100B7000B04800F0A1FD00E020BFC8480078002880
:100B8000FAD0072000F0E8FC0020C4490870C5A096
:100B90000068099009A8089007A80690072000F0AF
:100BA0006FFC022000900122A248069B089900F0E9
:100BB00083FD00E020BFB94800780028FAD0072064
:100BC00000F0CAFC0020B54908709DF81D004228BD
:100BD00003D1B5A10020FBF72BFF4FF4FA7000F012
:100BE00010FB02F045FC06461EB1B4A10020FBF745
:100BF0001FFFB6A00068059005A8049003A8029006
:100C00000020022300902921B148049A00F018FE28
:100C10000546032D03D1AFA10020FBF709FF0020FB
:100C2000012300902921AA48049A00F009FE0546F4
:100C3000032D03D1AAA10020FBF7FAFE01232921ED
:100C4000A348029A00F0E6FD0546032D03D1A7A1B3
:100C50000020FBF7EDFE07208DF8140001208DF831
:100C6000150000200223009029219948049A00F0E1
:100C7000E7FD00200123009029219548049A00F007
:100C8000DFFD012329219248029A00F0C3FD0820CC
:100C90008DF8140000200123009029218C48049A2B
:100CA00000F0CEFD012329218948029A00F0B2FD0F
:100CB0009DF80C2090A10020FBF7C7FE10208DF8B6
:100CC0001400C0208DF81500002002230090292177
:100CD0007F48049A00F0B4FD0020012300902921F0
:100CE0007B48049A00F0ACFD012329217848029A40
:100CF00000F090FD9DF80C2082A10020FBF7A5FEDE
:100D00000F208DF814000020022300902921704844
:100D1000049A00F095FD00200123009029216C48E1
:100D2000049A00F08DFD012329216948029A00F000
:100D300071FD9DF80C2073A10020FBF786FE1120A9
:100D40008DF8140012208DF8150000200223009069
:100D500029215F48049A00F073FD002001230090D0
:100D600029215B48049A00F06BFD01232921584892
:100D7000029A00F04FFD9DF80C2065A10020FBF7C2
:100D800064FE12208DF814001C208DF81500002040
:100D90000223009029214E48049A00F051FD0020C2
:100DA0000123009029214A48049A00F049FD0123BB
:100DB00029214748029A00F02DFD9DF80C2057A1EB
:100DC0000020FBF742FE16208DF8140035208DF828
:100DD00015000020022300902921A5E04E52465F15
:100DE000494E56414C49445F53544154450A000012
:100DF000383E0200C4200020C8200020D02000205F
:100E0000CC200020E5030200D4200020696E746528
:100E100072727570742070696E206E6F7420696EC6
:100E2000697469616C697A65640A0000352B020097
:100E3000DC200020103E02002E2E5C2E2E5C2E2E7A
:100E40005C6D61696E2E63002D0000008000000063
:100E50004144584C31206D6561737572656D656EE6
:100E600074206D6F64652030203D2025640A0000E9
:100E7000902000204144584C32206D65617375729A
:100E8000656D656E74206D6F64652030203D202592
:100E9000640A00009120002006000000A12000202C
:100EA00001420000050000004652414D20696E6974
:100EB0007469616C697A65640A00000069326320B4
:100EC000696E6974204552524F520A003E0100007B
:100ED000183E02006932634572726F7220310A0057
:100EE0006932634572726F7220330A00693263455A
:100EF00072726F7220340A003031203D2025640A5E
:100F0000000000004330203D2025640A000000005E
:100F10003132203D2025640A000000003143203D8D
:100F20002025640A000000005048049A00F088FC64
:100F300000200123009029214C48049A00F080FCF5
:100F4000012329214948029A00F064FC9DF80C20F5
:100F500047A10020FBF779FD15208DF81400122021
:100F60008DF8150000200223009029213F48049AA3
:100F700000F066FC00200123009029213B48049AE0
:100F800000F05EFC012329213848029A00F042FC5F
:100F90009DF80C20AFF288010020FBF756FD0720DA
:100FA0008DF8140000208DF81500022300902921EF
:100FB0002E48049A00F044FC0020012300902921CF
:100FC0002A48049A00F03CFC012329212748029A70
:100FD00000F020FC3D208DF814000C208DF8150049
:100FE00000200223009029212048049A00F028FCC8
:100FF00000200123009029211C48049A00F020FCC5
:10100000012329211948029A00F004FC9DF80C00E4
:101010000C2803D119A10020FBF70AFD02F05CF9AE
:10102000FCF79CFF0198FDF7DDFFFEF7E3FF01F001
:10103000BFFCFCF7A9F9FDF7ADFDFCF771FB032040
:10104000FCF72CFD044600BFA346BBF1000F08D0FF
:1010500000BFAFF21C2240F2FE315846FCF7E5F922
:1010600000BF00BF00BF00F089FFFCE7183E020090
:101070003042203D2025640A000000004D61696E69
:1010800020424E4F30353520696E697469616C6954
:101090007A65640A0000000010B50548006820F079
:1010A0000800034908600348007801F089FC10BD7E
:1010B00074210020582100202DE9F04105460E46FC
:1010C00014469846A888871C2088801C38444045D0
:1010D00002D90C20BDE8F081FE2F01D90C20F9E7E0
:1010E000781C218870542088401C2080FF20218893
:1010F00070542088401C208022889119288802F092
:1011000047FD218808442080A88800280DDDA868B4
:1011100008B90720DEE7AA8823889819A968FBF791
:101120003FFA2088A988084420800020D2E72DE9D2
:10113000F84F05460F46144698462878012804D1F2
:10114000687810B90720BDE8F88F2088801C4045DA
:1011500008D82878012807D12088801C697808449D
:10116000404501D90C20EEE72088A8EB0000801E46
:1011700086B200962188891CC81969467DDF8146A0
:1011800000BFB9F1000F01D04846DCE700BF287866
:10119000022806D1BDF80000B04202DC4FF0090A77
:1011A0000BE04FF0080A2878012805D16878B04292
:1011B00002DC6878009000E00096BDF80000FE2890
:1011C00001D90C20BFE7BDF80000401C21887854ED
:1011D0002088401C2080208807F800A02088401C20
:1011E00020802088BDF80010084420800020AAE755
:1011F000014600207047024600207047024600204A
:10120000704701B506E00098401E009040F2E730BC
:10121000FBF700F900980028F5D108BD70B50B4622
:1012200001461A46002907DA5407260E104C01F031
:101230000F052D1F665503E05407250E0D4C655410
:1012400000BF00BF00F01F02012191400A4A44097B
:1012500042F8241000BF00BF00F01F02012191409E
:101260004209920002F1E022C2F8001100BF70BDF5
:1012700018ED00E000E400E080E200E00146C1F388
:10128000073250B2704700002DE9F04705460E4680
:10129000284600F051FEF8B12846FDF743FA083819
:1012A00024490F5CBC11032C0BD100BF22480068FD
:1012B0000121A940084008B1032000E00220804637
:1012C00005E0012C01D1022000E0032080464146C8
:1012D000284600F021FB2AE0284600F039FE30B312
:1012E0002846FDF71FFA0446A00000F5807087B27B
:1012F0002046124951F8201041F001020F4941F8EF
:10130000202000BF384600F04FFB7EB12846FDF795
:1013100009FA8146FDF7BEF98046B8F1000F04D006
:10132000012101FA04F000F059FB00BF00BFBDE845
:10133000F08700008C290020100500501065004047
:101340002DE9FC4704460E4617464FF0000820469C
:1013500000F0E4FD10B14FF0080851E0F278394692
:101360002046FDF79FF90546681C002845D0B07857
:1013700060B100BFA10001F1A041D1F8001721F038
:101380000200214941F8240000BF0CE096F80190CA
:10139000002000904B46024601460190204600F096
:1013A0008BFA00BF00BFF078D0B13078174951F800
:1013B0002510174A1140154A42F82510114651F8D8
:1013C00025104FF4F85202EA04224FF4403303EAA6
:1013D00000431A4311430D4A42F8251000BF0EE0A6
:1013E000A5F108000B49085C317840EA811042B24F
:1013F000A5F1080007490A5401E04FF0040800BFB6
:101400004046BDE8FC870000000700501065004022
:10141000FFE0FCFF8C29002010B5134890F8540021
:1014200008B1082010BD002404E0204600F0A0FD13
:10143000601CC4B2202CF8DB002404E02046FDF739
:1014400019F9601CC4B20C2CF8DB06210846FFF722
:10145000E5FE4FF0004000F0C1FA0120024981F89A
:1014600054000020DEE700003C290020034890F8EB
:10147000540008B1012070470020FCE73C290020FF
:1014800010B50446204600F059FA10BD2DE9FC4184
:1014900004460E46002720462C490956491C09B12E
:1014A000012100E0002109B108274BE0B07860B3CA
:1014B000012200212046FDF7F5F80546681C10B30F
:1014C00030787178224A52F82520224B1A40204B5E
:1014D00043F825201A4652F825304FF4F85202EA14
:1014E00004224FF4403C0CEA004C42EA0C024FF458
:1014F000801C0CEA015C42EA0C021343144A42F8D5
:10150000253000BF00E0042705E000BFFE210F48A2
:10151000015500BF00BFAFB97078012803D1204644
:1015200000F024FA02E0204600F008FA00BF002094
:1015300000900346012211460190204600F0BCF9BC
:1015400000BF00BF3846BDE8FC8100006C290020C8
:1015500010650040FFE0ECFF10B50446204600F0A7
:1015600005FA10BD2DE9FC4706460C4692467079F7
:101570004E4901EB401898F8180010B10820BDE85A
:10158000FC871CB970794A4901EB0014C8F800A027
:10159000207B012803DC207800F0E0F902E02078CD
:1015A00000F0F4F901214348227840F822106078D5
:1015B000FF2808D094F80190484600F0CFF948463B
:1015C00000F09EF901E04FF0FF39A078FF280CD021
:1015D000A7780025002000902B4602460146019086
:1015E000384600F07BF900BF01E04FF0FF37E078AC
:1015F000FF2805D0E07800F0C9F9E07800F080F924
:10160000E0787179294A02EB4111887635682846DD
:101610002178C0F80815C0F80C954FF4A262175055
:1016200000BFA068C5F8240500BF217B627B0AB11A
:10163000012300E00023184631B1012906D0022918
:1016400007D0032908D000BF00BF08E040F0020027
:1016500005E040F0040002E040F0060000BF00BFDB
:10166000C5F8540500BF60797179104A02EB411149
:10167000C876D8F8000018B10421284600F0BAF95D
:1016800000BF0120C5F8000500BFD8F8000020B158
:10169000217996F90400FFF7C1FD002088F81900B0
:1016A000012088F81800002069E70000E82A0020DF
:1016B000FC3E0200000700502DE9FF4107460C46A2
:1016C00015461E46DDF82880009402968DF80450D9
:1016D0008DF80C8000226946384600F003F804B00B
:1016E000BDE8F0812DE9F04105460E4617466879C0
:1016F000174901EB4014607E10B11120BDE8F08164
:10170000206820B107F0140008B90120607696E83F
:101710000E10C4E9043CC4E90212607F20F001000D
:101720006077607F20F002006077A07EFF2802D003
:10173000A07E00F013F91FB1002060760620DDE7DF
:1017400032462146286801F0FBF90020D6E7000068
:10175000E82A0020027902EB8202064B03EBC20169
:10176000026800BF0523C2F8003500BF022281F8DD
:1017700022207047982A00202DE9F04706460C46A3
:1017800017469846307900EB80001F4901EBC005F1
:1017900095F8220010B10820BDE8F0871CB9307917
:1017A0001A4901EB00142F60C5F804800020A860DE
:1017B00085F8250085F824002146304601F00EFE0C
:1017C00040F20C611248226840F82210626840F82A
:1017D00022103068D4E90012C0F80815C0F80C25B2
:1017E00000BFA168C0F8241500BF286830B1306878
:1017F000FFF744FD8146217BFFF710FD012085F8AE
:1018000022000020C8E70000982A0020D03E0200F5
:1018100000070050FEB507460C4615461E46074A0F
:1018200007CA8DE807008DF801408DF80260019528
:1018300000226946384600F021F8FEBDF03E020065
:101840002DE9FE4307460C4615461E46DDF8288066
:1018500000200090019002908DF801408DF8026008
:101860000195B8F1000F01D0202000E000200246D1
:101870006946384600F002F8BDE8FE832DE9F041E4
:1018800004460E4615460027207900EB80000949E2
:1018900001EBC00805F0030010B10620BDE8F0819F
:1018A0002B4632464046216801F082FF0746384603
:1018B000F4E70000982A0020F0B5DDE9054541EA8B
:1018C000420646EA830646EA042646EA0547024EF1
:1018D00046F82070F0BD000000070050F0B5DDE9CB
:1018E000054541EA420646EA830646EA042646EAF8
:1018F0000547024E46F82070F0BD0000000700507A
:101900001CB50446002000900346012211460190B8
:101910002046FFF7E3FF1CBD074A52F8202022F4BF
:101920004033054A42F8203052F8202042EA014371
:10193000014A42F8203070470007005001218140E1
:10194000014A1160704700000C05005001218140E0
:10195000014A1160704700000C05005001218140D0
:10196000014A1160704700000C05005001218140C0
:10197000014A1160704700000805005001218140B4
:10198000014A1160704700000805005001218140A4
:10199000014A1160704700000805005001460148E7
:1019A000084470470060004038B504462046FFF701
:1019B000F5FF002101602046FFF7F0FF006800906E
:1019C00000BF38BD10B504462046FFF7E7FF0068AA
:1019D000012800D110BD0020FCE70000014908608B
:1019E0007047000004630040002242507047C0F876
:1019F00008137047C0F804137047C0F81C157047EF
:101A00000246505808B1012070470020FCE7002230
:101A100042507047C0F808137047C0F8041370476D
:101A2000C0F8001270470122425070470146D1F8B9
:101A30008004C1F8800470470246505808B1012064
:101A400070470020FCE7002242507047C0F808139E
:101A500070470246D2F80403084008B101207047DD
:101A60000020FCE70122425070470146D1F8800473
:101A7000C1F8800470470246505808B101207047F1
:101A80000020FCE7002242507047014640F23C50E3
:101A90004058704770B5054695B1032D11D102200D
:101AA000FCF70AFB044600BF26463EB100BF06A273
:101AB00040F29D113046FBF7B8FC00BF00BF01E0CB
:101AC00000E000BF00BF70BD2E2E5C2E2E5C2E2EBF
:101AD0005C6D61696E2E630070B50546288810281C
:101AE00002D0112819D113E00720FCF7E5FA0446CB
:101AF00000BF26463EB100BF09A24FF4DA7130465E
:101B0000FBF793FC00BF00BFA8880949088005E0E7
:101B10004FF6FF700649088000E000BF00BF70BDAF
:101B20002E2E5C2E2E5C2E2E5C6D61696E2E630057
:101B30008220002070B50546287880B93B210848EE
:101B4000008876DF044600BF26463EB100BF05A2EE
:101B50004FF4A6713046FBF768FC00BF00BF70BDB4
:101B6000822000202E2E5C2E2E5C2E2E5C6D616954
:101B70006E2E630010B504460349A2680A60E0684F
:101B80004860FDF73FF810BD3021002010B5044635
:101B9000A088084908800849A2690A60E06948608D
:101BA0000020064908700648C08908B9FDF72AF8E0
:101BB00010BD00002E210020302100202C2100200B
:101BC000B027002070B505464FF6FF700949088020
:101BD00000200949087009480068FBF75DFD0446CC
:101BE00034B10748806918B10548816920468847A3
:101BF00070BD00002E2100202C210020703E02002C
:101C0000B027002070B50546AC1D20881149C98950
:101C100088421DD1608902281AD100BF00BF217BF4
:101C2000627B41EA0221084600F0010111B1FCF794
:101C3000E9FF0DE008480068FBF72EFD064636B1C7
:101C40000448806918B1034881693046884700BF5D
:101C500070BD0000B0270020703E020070B59CB03F
:101C60000546574B0FCB17AC0FC44BF6EF60ADF8E2
:101C70006C00A11C17A863DF044600BF264636B1DE
:101C800000BF50A249213046FBF7CFFB00BF00BF89
:101C90001C2110A8FAF79DFC9DF8400020F00200DE
:101CA000801C8DF840009DF8400020F008000830AE
:101CB0008DF8400000200F9000BF9DF83C0020F000
:101CC0000F00401C8DF83C009DF83C0020F0F00017
:101CD00010308DF83C0000BF00BF9DF83D0020F0A3
:101CE0000F00401C8DF83D009DF83D0020F0F000F5
:101CF00010308DF83D0000BF9DF83E0020F006003A
:101D0000801C8DF83E000FA815909DF8400020F033
:101D1000100010308DF8400000200E909DF83A0021
:101D200020F00600801C8DF83A0000BF9DF83800B6
:101D300020F00F00401C8DF838009DF8380020F08E
:101D4000F00010308DF8380000BF00BF9DF839005A
:101D500020F00F00401C8DF839009DF8390020F06C
:101D6000F00010308DF8390000BF142109A8FAF7EF
:101D700030FC1BA809900EA80A901420ADF8300082
:101D8000ADF82C001C2102A8FAF723FC0C481030F7
:101D90000068019001A80D9068882B1D09AA10A960
:101DA000A2DF044600BF264636B100BF05A271215E
