:020000040001F9
:10C00000784F00207DC5010085C5010087C501006E
:10C0100089C501008BC501008DC50100000000002D
:10C020000000000000000000000000008FC50100BB
:10C0300091C501000000000093C5010095C50100F5
:10C0400097C5010097C5010021CF01005DCC01001B
:10C0500071CC010097C5010065C6010097C50100BC
:10C0600097C5010097C5010097C5010097C501005C
:10C0700097C5010097C5010097C5010097C501004C
:10C0800097C501008DC8010097C5010097C5010043
:10C0900085CC010097C501008DCC010097C501003A
:10C0A00097C5010097C5010097C5010097C501001C
:10C0B00097C5010097C501000000000000000000C6
:10C0C00097C5010097C5010097C5010097C50100FC
:10C0D00097C5010097C5010097C501000000000049
:10C0E0000000000000000000000000000000000050
:10C0F0000000000000000000000000000000000040
:10C10000000000000000000000000000000000002F
:10C11000000000000000000000000000000000001F
:10C40000DFF80CD000F0FEF800480047B50A020043
:10C41000784F0020401E00BF00BF00BF00BF00BF1C
:10C4200000BF00BF00BF00BF00BF00BF00BF00BF14
:10C4300000BF00BF00BF00BF00BF00BF00BF00BF04
:10C4400000BF00BF00BF00BF00BF00BF00BF00BFF4
:10C4500000BF00BF00BF00BF00BF00BF00BF00BFE4
:10C4600000BF00BF00BF00BF00BF00BF00BF00BFD4
:10C4700000BF00BF00BF00BF00BF00BF00BF00BFC4
:10C4800000BF00BF00BFC5D170470000401E00BF05
:10C4900000BF00BF00BF00BF00BF00BF00BF00BFA4
:10C4A00000BF00BF00BF00BF00BF00BF00BF00BF94
:10C4B00000BF00BF00BF00BF00BF00BF00BF00BF84
:10C4C00000BF00BF00BF00BF00BF00BF00BF00BF74
:10C4D00000BF00BF00BF00BF00BF00BF00BF00BF64
:10C4E00000BF00BF00BF00BF00BF00BF00BF00BF54
:10C4F00000BF00BF00BF00BF00BF00BF00BFC5D16D
:10C5000070470000401E00BF00BF00BF00BF00BF5B
:10C5100000BF00BF00BF00BF00BF00BF00BF00BF23
:10C5200000BF00BF00BF00BF00BF00BF00BF00BF13
:10C5300000BF00BF00BF00BF00BF00BF00BF00BF03
:10C5400000BF00BF00BF00BF00BF00BF00BF00BFF3
:10C5500000BF00BF00BF00BF00BF00BF00BF00BFE3
:10C5600000BF00BF00BF00BF00BF00BF00BF00BFD3
:10C5700000BF00BF00BFC5D170470000064880471C
:10C5800006480047FEE7FEE7FEE7FEE7FEE7FEE7B8
:10C59000FEE7FEE7FEE7FEE7D5CC010001C401009F
:10C5A00040EA01039B0703D009E008C9121F08C035
:10C5B000042AFAD203E011F8013B00F8013B521EB5
:10C5C000F9D27047D2B201E000F8012B491EFBD22C
:10C5D00070470022F6E710B513460A46044619468E
:10C5E000FFF7F0FF204610BD30B50446002003469B
:10C5F00000E05B1C934203D2E05CCD5C401BF8D0B2
:10C6000030BD0000064C074D06E0E06840F0010335
:10C6100094E8070098471034AC42F6D3FFF7F4FED5
:10C62000B83A0200D83A020030B58C1810F8012B45
:10C6300012F00F0301D110F8013B120906D110F8D6
:10C64000012B03E010F8015B01F8015B5B1EF9D1DF
:10C6500001E001F8013B521EFBD1A142E6D30020CC
:10C6600030BD00002DE9F04F87B00027BA464FF4E7
:10C67000807006900125002412E0069804F0F0FF77
:10C6800040B100BF60480068284018B1069804F027
:10C69000D9FF2F436D000698001D80B20690641CE0
:10C6A000082CEAD34FF4BE7004F0DAFF48B14FF41F
:10C6B000BE7004F0C7FF47F0004700BF5348006852
:10C6C0008246F8B2F8B1012500241AE005EA070015
:10C6D000A8B100BF4E4850F82400C0F3042006461D
:10C6E00000BF4B4850F82400C0F30140804620466C
:10C6F00002F032F8814641463046C84700BF6D001F
:10C70000641C082CE2D307F00040002879D04FF0D9
:10C71000000B00200590401E049000BF4FF0000B5E
:10C72000002457E03B48005D0390039820F0C006CA
:10C7300038480057401C00284BD00120B0400499D5
:10C740000840002845D003984FEA9019304602F07F
:10C750004BF8804602F000F80290029810B9B9F147
:10C76000030F35D1012000FA06F5B9F1030F02D10C
:10C7700005982843059000BF274850F82600C0F3CD
:10C78000014800BF05EA0A0010B1B8F1020F05D058
:10C7900005EA0A00D8B9B8F1030F18D1B9F1030FAF
:10C7A0000FD1B8F1020F01D1032000E00220019067
:10C7B0003046019904F00EFF0BF1010000F0FF0B71
:10C7C00000BF029818B149463046029A904700BF10
:10C7D00000BF641C042CA5D3BBF1000F0DD000BF1B
:10C7E0000A4909680846504503D14FF0000B03E0A1
:10C7F00007E082460599049100BFBBF1000F8DD17F
:10C8000000BF07B0BDE8F08F046300401005005082
:10C8100010650040842900200007005000F01F022E
:10C8200001219140024A430942F823107047000059
:10C8300080E200E000F01F020121914042099200D5
:10C8400002F1E022C2F800117047000000F01F0260
:10C8500001219140024A430942F823107047000029
:10C8600000E200E010B5002807DA4A07140E054A76
:10C8700000F00F031B1FD45403E04A07130E024AB3
:10C88000135410BD18ED00E000E400E010B50020E6
:10C890000949086000210948C0F84411C0F848114E
:10C8A000C0F84C1100200549C1F8000102493C398B
:10C8B000086006F075FA10BD4011014000100140FB
:10C8C0002DE9F04704468946164600F035FB04EB97
:10C8D0004401564800EBC100007D00F0030002282F
:10C8E00027D004EB4401514800EBC100D0F8108080
:10C8F00004EB44014D4800EBC100C068A8EB000008
:10C90000451E002D06DA04EB4401484800EBC10047
:10C9100080680544AE420CDD04EB4401434800EB63
:10C92000C100007D00F0030010B90020BDE8F087D1
:10C930002E460EB90020F9E7002700BF04EB4401A2
:10C940003A4800EBC100D0F8108004EB44013748AE
:10C9500000EBC100C068A8EB0000451E002D06DA00
:10C9600004EB4401314800EBC1008068054404EB4E
:10C9700044012E4800EBC10004EB440281682B48BF
:10C9800000EBC200C068081AA84201DD28460CE08E
:10C9900004EB4401254800EBC10004EB440281682C
:10C9A000224800EBC200C068081A0546B54201DA09
:10C9B000284600E03046054604EB44021B4901EBE3
:10C9C000C20104EB44034A68184901EBC301C9687A
:10C9D00050182A464946FFF7E3FD2F44A944761B29
:10C9E00004EB4401114800EBC100C068411904EB9D
:10C9F00044020E4800EBC200C16004EB44010B4846
:10CA000000EBC100C16804EB4402084800EBC2001F
:10CA10008068814206D1002104EB4402034800EB08
:10CA2000C200C160002E89D138467FE7C4210020B2
:10CA300070B505460C46204600F09FFB0646324680
:10CA400021462846FFF73CFF70BD0FB438B50446B9
:10CA500006A800906A462046059900F003F838BC05
:10CA60005DF814FB2DE9F04F99B081460D46144650
:10CA700003A814904020159000201690CDF86090E7
:10CA8000179000BF15F8016B06B9D4E0252E73D1BD
:10CA9000002700BF2E78232E12D02B2E0CD02D2E47
:10CAA00002D0302E10D103E047F001076D1C0CE0DE
:10CAB00047F002076D1C08E047F004076D1C04E016
:10CAC00047F008076D1C00E001E000BFE2E74FF00F
:10CAD000000800BF2E78302E01DB392E00DD07E084
:10CAE0006D1CA6F1300008EB880100EB4108F1E76E
:10CAF00000BF002013902E782E2E12D16D1C00BF87
:10CB00002E78302E01DB392E00DD09E06D1CA6F1F8
:10CB10003000139901EB810100EB41001390EFE726
:10CB200000BF2E7800BF6C2E01D0682E02D115F800
:10CB3000016B00E000E0F6E700BF702E5BD008DC80
:10CB4000252E68D0582E35D0632E09D0642E67D19B
:10CB500013E0732E3CD0752E1DD0782E60D128E0C6
:10CB60002168081D2060D1F800A00AF0FF0B59468B
:10CB700014A800F0D1FA53E055E02168081D2060A8
:10CB8000D1F800A0CDE900870A22514614A8139BD2
:10CB900000F0D3F944E02168081D2060D1F800A01E
:10CBA000CDE900870A22514614A8139B00F03AFAF7
:10CBB00036E000BF2168081D2060D1F800A0CDE953
:10CBC00000871022514614A8139B00F02BFA27E08F
:10CBD0002168081D2060D1F800B000BF1BF8016B70
:10CBE00006B906E0314614A800F096FA1798002816
:10CBF000F4DA00BF14E02168081D2060D1F800A01D
:10CC0000002008210B461022CDE90010514614A83F
:10CC100000F008FA04E0252114A800F07DFA00BF16
:10CC200000BF6D1C03E0314614A800F075FA179898
:10CC30000028BFF627AF00BF179800280ADD169816
:10CC400020B103A94846169AFFF73AFEDDE916100F
:10CC500008441790179819B0BDE8F08F10B5024935
:10CC6000024803F043FD10BD902A00200030004030
:10CC700010B503494FF0402003F038FD10BD00000F
:10CC8000B82A002010B505F091FF10BD70B50B4813
:10CC9000006880B1094800688047044600BF254607
:10CCA0003DB100BF064A4FF4B371284600F0DBFBEC
:10CCB00000BF00BF01E003F0C1FC70BD9421002063
:10CCC000543A020001480249086070470090D003BE
:10CCD0002822002010B503F069F810B1824883497A
:10CCE000486703F07BF828B181480068C0F3423000
:10CCF0008049086003F09CF828B17F48006820F064
:10CD000080707D49086003F0ABF848B100207B4992
:10CD100008604FF08041C1F810017649091F086092
:10CD200003F0C8F818B1032072496431086003F0B9
:10CD3000D9F868B10520724908600120704978313E
:10CD4000086000206E49083108603F20091F086014
:10CD500003F0E0F8002855D06A4800686A49086086
:10CD60006848001D0068091D0860664808300068B2
:10CD7000091D086063480C300068091D086061489F
:10CD800010300068091D08605E4814300068091DF5
:10CD900008605C48183000685B49203108605948D9
:10CDA0001C300068091D0860564820300068091DC5
:10CDB0000860544824300068091D08605148283034
:10CDC0000068091D08604F482C300068091D086084
:10CDD0004C48303000684C49403108604948343094
:10CDE0000068091D0860474838300068091D086060
:10CDF00044483C300068091D0860424840300068E3
:10CE0000091D086002F0A8FF30B1394814300068ED
:10CE100000F04F003D49086037487438006840F41E
:10CE2000700035497439086000BF00BF00BFBFF310
:10CE30004F8F00BF00BF00BF00BF00BF00BFBFF3E8
:10CE40006F8F00BF00BF00BF3148006800F0004096
:10CE500030B92F48001D006800F00040002840D085
:10CE600001202C49086000BF2B4800680028FBD037
:10CE700015202749086000BF274800680028FBD01C
:10CE800015212348001D016000BF234800680028C9
:10CE9000FBD000201F49086000BF1F480068002821
:10CEA000FBD000BF00BF00BF00BF00BFBFF34F8F6C
:10CEB00000BF00BF00BF1048F038006800F4E06019
:10CEC00016490843001D0C49F039086000BF00BF37
:10CED00000BFBFF34F8F00BF00BF00BF00BF00BF48
:10CEE000FDE7FFF7EFFE10BD0DF0ADBA00C0074043
:10CEF000440200103C050040FCED00E00C01004045
:10CF0000105600400404001020C50040E40E00400C
:10CF10000012001004E5014000E401400000FA05A1
:10CF200010B50448007F10B106F01EFB01E006F0CA
:10CF30006BFA10BD8C29002070472DE9FC5F074675
:10CF40000E4692469846DDE90C45002E01DA704205
:10CF500000E0304683464FF0010903E0BBFBFAFBDB
:10CF600009F10109D345F9D2C84500D9C14634B108
:10CF7000002E03DB05F00400042800D1641E05F038
:10CF8000020010B1B8F1000F12D005F0010078B91D
:10CF900074B108E02021384600F0BEF8F868002897
:10CFA00001DABDE8FC9F1CB12046641E4845F1D85B
:10CFB000002E08DA76422D21384600F0ADF8F868E8
:10CFC00000280CDAEDE705F00400042807D12B2136
:10CFD000384600F0A1F8F868002800DAE1E705F02B
:10CFE0000200022814D105F0010088B9B8F1000F41
:10CFF0000ED16CB107E03021384600F08DF8F868AA
:10D00000002800DACDE71CB12046641E4845F2D85E
:10D010004346524631463846CDE9004500F002F815
:10D0200000BFBEE72DE9FE4F81460F4614469846E5
:10D03000DDE90C5B01260197B24605E00198B0FBE3
:10D04000F4F001900AF1010A0198A042F6D2D0450D
:10D0500000D9C2460BF00100E0B9DDB10BF00200CF
:10D06000022805D1B8F1000F02D13020009001E074
:10D070002020009009E04846009900F04DF8D9F8CA
:10D080000C00002801DABDE8FE8F1DB128466D1E98
:10D090005045F0D800E06643B7FBF6F0A04201D35C
:10D0A000012000E000204146A8F10108012901DD2E
:10D0B000012100E0002108430028ECD100BFB7FBAC
:10D0C000F6F00290029800FB1677124A0298115C63
:10D0D000484600F021F8D9F80C00002800DA03E0F7
:10D0E000B6FBF4F6002EEAD100BF0BF0010078B1D8
:10D0F00075B108E02021484600F00EF8D9F80C0080
:10D10000002800DABFE71DB128466D1E5045F1D852
:10D1100000BFB8E7F839020070B504460E46A568AE
:10D12000681C6168814206DB20684655681CA06067
:10D13000E068401CE060D4E9011088420DD1A2688B
:10D1400021682069FFF7BCFBA168884203D04FF03B
:10D15000FF30E06001E00020A06070BD02E008C880
:10D16000121F08C1002AFAD170477047002001E061
:10D1700001C1121F002AFBD170470146002209B9E4
:10D180000020704700BF087800B902E0521C491C1B
:10D19000F9E700BF1046F4E72DE9FC410446884654
:10D1A00016460025378800203080606B68B1616BBF
:10D1B00008783B463246414605F0D6F9054600BFA1
:10D1C00015B12846BDE8FC8100BF206B58B13B4635
:10D1D00032464146206B05F05FFE054600BF0DB1AB
:10D1E0002846EFE700BF94F82E0060B194F82E00B7
:10D1F0003B463246414603F055FB054600BF0DB1A4
:10D200002846DFE700BF94F82D0050B13A4631467A
:10D21000404600F0FCFD054600BF0DB12846D1E7B1
:10D2200000BFA07850B13A463146404600F06CFA53
:10D23000054600BF0DB12846C4E700BFE07860B1E5
:10D24000E17848B23B463246414602F0A7FE054629
:10D2500000BF0DB12846B5E700BF606868B16168DE
:10D2600091F900003B463246414606F0B1F80546CA
:10D2700000BF0DB12846A5E700BF208900280EDDBC
:10D2800043460622022104F10800CDE9006706F0BA
:10D29000A3FA054600BF0DB1284693E700BF208AD8
:10D2A00000280EDD43460722032104F11000CDE9DA
:10D2B000006706F091FA054600BF0DB1284681E7E8
:10D2C00000BF208B00280EDD43461522142104F1F7
:10D2D0001800CDE9006706F07FFA054600BF0DB1E2
:10D2E00028466FE700BF206A58B13B4632464146A8
:10D2F000206A01F068FC054600BF0DB1284661E7D1
:10D3000000BF606A58B13B4632464146606A03F04E
:10D3100047FE054600BF0DB1284653E700BF94F80D
:10D320002C0000280BDD3B4632464146204605F0E6
:10D3300036F9054600BF0DB1284643E700BF207807
:10D3400058B13B4632464146204603F064FE05464E
:10D3500000BF0DB1284635E700BF284632E7014639
:10D36000C87800F0040008B9072070470020FCE7E7
:10D3700010B501220221002000F0FAFE044600BF91
:10D380001CB1072C01D0204610BD00BF072202218E
:10D39000012000F0EDFE044600BF1CB1072C01D0B7
:10D3A0002046F1E700BF0A220021084600F0E0FE17
:10D3B000044600BF1CB1072C01D02046E4E700BFA3
:10D3C0000020E1E730B5A7B0382119A8FFF701F92F
:10D3D00002208DF8640006208DF86700242110A833
:10D3E000FFF7F7F801208DF84C004FF49670149079
:10D3F0003C201590382102A8FFF7EBF80120ADF88A
:10D4000018000C49079100200B4B10AA02A90090AC
:10D4100019A800F0F9F9044600BF25463DB100BF48
:10D4200006A24FF41A71284600F01DF800BF00BF95
:10D4300027B030BDDE200020191702002E2E5C2EF2
:10D440002E5C2E2E5C6D61696E2E630070B50446F5
:10D450000D4616460C2000F091FE32462946204625
:10D4600000F012F870BDFEB504460E461546B0B287
:10D47000ADF80000019502946A46002144F20100D3
:10D48000FFF7E4FFFEBD000018B5012300939DF8EF
:10D4900000301E4B186059609A606FF4804303445B
:10D4A00063B1012B19D1194BDA60DB681B88174C6B
:10D4B000A3612346DB685B68E3610EE0134B1A61EE
:10D4C0001B699B68114C636123461B691B88A36120
:10D4D00023461B695B68E36100BF00BF0B4B1B6801
:10D4E0000A4B5B68094B9B68084BDB68074B1B6961
:10D4F000064B5B69054B9B69044BDB6972B600BF49
:10D500009DF80030002BFBD162B618BDE02A002048
:10D510002DE9F04104460D46164604480768324698
:10D5200029462046B847BDE8F081000010290020B8
:10D53000F8B505460C462778A06800EB4000064980
:10D5400051F820600548006800902A46394604F1E9
:10D5500008002369B047F8BD782A00206821002020
:10D5600010B504460748007800EB80020548001D0E
:10D5700000EB82012046FFF7DBFF042005F062F894
:10D5800010BD0000AC29002010B503460C4600BFBA
:10D590000B48006808B9082010BD00BF0AB9072071
:10D5A000FAE70BB90720F7E71868007C08B10820F4
:10D5B000F2E71968002008744C744A6100BFEBE779
:10D5C000742100202DE9F04180460E4614461F4686
:10D5D000204600F0030109B9012100E0002111B942
:10D5E0000720BDE8F08124B900201D49086007200C
:10D5F000F7E704F0DDFE1B48076003201A490870B6
:10D6000017480460183400250DE01549096801EB3E
:10D61000C5000021017041708670446006EB460130
:10D6200004EBC1046D1C032DEFDB00200F490860E3
:10D630000F4908700F4908701420FFF7EFF8062112
:10D640001420FFF70FF91420FFF7F4F8404604F018
:10D6500085FE04F07DFE084908600020C1E7000057
:10D66000742100208C2100207021002078210020CE
:10D6700088210020892100207C2100202DE9F84309
:10D6800004460D461746264600BF1148006810B9EB
:10D690000820BDE8F88300BF0CB90820F9E7052D84
:10D6A00001D20720F5E7706908B90820F1E7707C1E
:10D6B000012801D1284600E00020804606F046F807
:10D6C000814643462A463146009705F009FBE0E7CC
:10D6D0007421002070B50446254600BF0948006843
:10D6E00008B9082070BD00BF0CB1686908B90820EE
:10D6F000F8E70020287406F029F80646294605F0C8
:10D700001DFBEFE774210020F8B505460C461746CF
:10D710002088001DB84201D90C20F8BD684679DF89
:10D72000064600BF0EB13046F7E700BF0320218850
:10D7300068542088401C2080192021886854208843
:10D74000401C208020884119BDF8000005F0A2FF90
:10D750002188084420800020DFE7000010B5002267
:10D760004FF4A47102480068FFF788FF10BD000065
:10D770001C3902002DE9F04192B080460D461F2071
:10D7800011901090B8F1000F17D04046FFF7E7FD59
:10D79000044600BF1CB1204612B0BDE8F08100BFB6
:10D7A00011AA08A94046FFF7F7FC044600BF0CB1D8
:10D7B0002046F1E700BF08AE02E0002600201190ED
:10D7C000ADB1284604F0C0FF044600BF0CB12046AE
:10D7D000E2E700BF10AA69462846FFF7DDFC0446D1
:10D7E00000BF0CB12046D7E700BF6F4602E000271C
:10D7F00000201090BDF84000C3B2BDF84400C1B293
:10D800003A46304672DFC7E72DE9F04704460F4637
:10D8100015461E46DDF8208000BF14B90E20BDE875
:10D82000F08700BF00BF0DB90E20F8E700BF002051
:10D8300046490870464806604648C0F800802422E1
:10D8400029464548FEF7ACFE00F03EF943484449FE
:10D8500008604448886038214348FEF7BAFE2078C3
:10D8600041490870A0788870E078C8706078487086
:10D870000846D4E90412C0E90412D4E90212C0E94E
:10D880000212D4E90612C0E90612606AD8B137481C
:10D890003549486236498160606A00883249496A80
:10D8A0000880606A80883049496A8880002005E0E5
:10D8B000616A8968095C2E4A1154401C2A49496AE8
:10D8C00089888142F4D8A06A20B32A492A48816015
:10D8D0002549886227492448806A8160A06A808837
:10D8E0002149896A8880A06A00881F49896A08805E
:10D8F000002005E0A16A8968095C1E4A1154401C99
:10D900001949896A89888142F4D894F82C0016490B
:10D9100081F82C00206A58B1184813490862206A1F
:10D920004088096A4880206A00880F49096A08808F
:10D93000606820B112480C49486060684860394608
:10D940000948FFF717FF8146484668E71021002085
:10D95000082100200C210020DC26002010270020B8
:10D960000027002030270020A42600205027002078
:10D970005C270020882700207C270020142100201D
:10D980001821002070B504462088102804D01128E2
:10D9900009D01B2863D11BE0A07D012802D1A088FB
:10D9A000304908805CE000202F490870A0882D498C
:10D9B000098888420BD1012000F08EF8054635B168
:10D9C0002A48006818B1284628490968884747E06E
:10D9D000207A002842D126480078012806D0022863
:10D9E00011D003281CD0042836D129E0022000F0F1
:10D9F00073F8054635B11D48006818B128461B4923
:10DA00000968884729E0032000F066F8054635B12B
:10DA10001648006818B128461449096888471CE070
:10DA2000032014490870042000F056F8054635B16B
:10DA30000E48006818B128460C49096888470CE070
:10DA400000200C4908700C48006820B10846007896
:10DA500009490968884700E000BF00BF00E000BF37
:10DA600000BF70BD1A210020112100200C210020D0
:10DA700010210020042100200821002070B5044658
:10DA80000025022C02D0032C15D100E000BF0B486A
:10DA9000007878B10020094908700948007800F042
:10DAA0001BF8054635B10748006818B128460549F6
:10DAB0000968884700E000BF00BF70BDFC2000205F
:10DAC000102100200C2100200248002101608180EB
:10DAD00081717047FD20002030B587B0054695481C
:10DAE000057002F076FA28B10120934908700020F1
:10DAF00007B030BDFFF7E8FF9048407818B18D4877
:10DB0000007801280DD08D48807818B189480078B8
:10DB1000012806D08948807888B186480078022894
:10DB20000DD18748006838B1012086490870082067
:10DB300083490968884702E00020824908707D48CF
:10DB40000078012809D17D48407818B17E4803F05B
:10DB5000E9FF10B90220774908707648007802285A
:10DB600009D17648807818B1774803F0DBFF10B907
:10DB70000320704908707148007B30B96D48007807
:10DB8000032802D104206B4908706C48007E40B91C
:10DB900068480078042804D10020664908706B4961
:10DBA000087067480068A8B162480078032803D06D
:10DBB0006048007804280DD16048007850B164486E
:10DBC000007838B901206349087007205C4909686A
:10DBD000884702E000205F490870182101A8FEF77D
:10DBE000F8FC00208DF8040002908DF80C000490E1
:10DBF00050480078012806D0022813D0032825D0E9
:10DC0000042876D150E05048401E029001208DF843
:10DC100004000020ADF81600ADF8140001204B49B7
:10DC2000087071E04848401E029001208DF8040001
:10DC30004248008980B2ADF816004048808880B222
:10DC4000ADF814000220414908705DE03B48808A2D
:10DC500080B2ADF816003948008A80B2ADF81400E1
:10DC60003D4805F04EFED8B134480078C0B1384880
:10DC70000078A8B902208DF80C00374804900420E1
:10DC80003649C87000213548FFF774FD044600BFCF
:10DC90000CB120462CE700BF05202C49087002E09B
:10DCA00003202A4908702FE02448808B80B2ADF809
:10DCB00014002248008C80B2ADF81600264805F00A
:10DCC00020FEE0B11D480078C8B121480078B0B905
:10DCD00002208DF80C002048049004201F49C870D1
:10DCE00000211E48FFF746FD044600BF14B1204640
:10DCF000FEE608E000BF06201449087002E0042098
:10DD00001249087000E000BF00BF0A48007838B12F
:10DD100001A873DF044600BF0CB12046E8E600BF4F
:10DD20000748006820B10948007805490968884714
:10DD30000020DDE610210020FC200020DC26002051
:10DD40000821002013210020FE20002004210020B3
:10DD5000112100201221002000270020A4260020ED
:10DD600070B505461C2229461248FEF719FC002012
:10DD700011490870286850B1104829680A68026083
:10DD8000496841607ADF04463CB1204670BD0B48CB
:10DD90007BDF04460CB12046F8E74FF6FF700849D8
:10DDA0000880002007490870074A00210748FFF74C
:10DDB000EBFBEBE7A8270020302100201C210020EE
:10DDC0002621002024210020BD3602006C390200EB
:10DDD00010B504462088102806D0112808D0122833
:10DDE0000ED0502810D107E0204603F011FD0CE0C2
:10DDF000204603F029FD08E0204603F045FD04E03D
:10DE0000204603F0F9FC00E000BF00BF10BD2DE983
:10DE1000FC4105460C46174620880930B84202D915
:10DE20000C20BDE8FC81684671DF064600BF0EB1DC
:10DE30003046F6E700BF0820218868542088401C3F
:10DE400020801B20218868542088401C2080208846
:10DE50002844DDF801100160BDF80510818020889C
:10DE6000801D20809DF8000018B90020218868548A
:10DE700002E00120218868542088401C2080002076
:10DE8000CFE7000010B50446204601F0A1F9204676
:10DE9000FFF79EFF204600F02FF9204603F05EFCBE
:10DEA0002046FFF76FFD2146014800F003F810BD42
:10DEB000E623002070B505460C462088102804D0C3
:10DEC000112805D050282ED106E0A08828802BE00C
:10DED0004FF6FF70288027E0A07C0D2808D113A101
:10DEE0000020FEF7A5FD04F037FC0120184908705A
:10DEF000A07C052802D1012016490870A07C0228C8
:10DF000003D115A10020FEF793FDA07C012803D1C9
:10DF100018A10020FEF78CFDA07C18B91AA10020E2
:10DF2000FEF786FD00E000BF00BF70BD7072657037
:10DF30006172696E6720746F2064756D7020646112
:10DF4000746120746F205254542E2E2E0A0000004B
:10DF5000E3200020E220002063656E7472616C2073
:10DF600064657669636520636F6E6E65637465646E
:10DF70000A0000006E6F74696669636174696F6E90
:10DF800073204F4E0A0000006E6F7469666963610A
:10DF900074696F6E73204F46460A000070B586B0F4
:10DFA00038480068059000BF00234822364905A87C
:10DFB00004F08CFB054600BF2E463EB100BF33A2E5
:10DFC0004FF4ED713046FFF74EFA00BF00BF00BFBF
:10DFD0006A460121002004F059FB044600BF254693
:10DFE0003DB100BF29A24FF4F0712846FFF73BFA7C
:10DFF00000BF00BF00BF294E304604F03FFA044680
:10E0000000BF25463DB100BF20A240F2E3112846E3
:10E01000FFF729FA00BF00BF00BF01208DF80C00F8
:10E02000684604F025FB044600BF25463DB100BF0D
:10E0300016A24FF4F4712846FFF715FA00BF00BF8F
:10E04000174804F009FB044600BF25463DB100BF58
:10E050000EA24FF4F6712846FFF705FA00BF00BF85
:10E06000104804F065FB044600BF25463DB100BFE3
:10E0700006A24FF4F8712846FFF7F5F900BF00BF7C
:10E0800006B070BD20390200FC2500202E2E5C2E2B
:10E090002E5C2E2E5C6D61696E2E6300E81F0020E1
:10E0A00085DE0100AD2A02007CB50446A1786A46EF
:10E0B0000D4803F0D3FD0546ADB96178C1EBC10150
:10E0C0000A4A02EB81001C231A46694603F004FF4A
:10E0D00005460748807A074951F8202021466846BE
:10E0E0009047054600BF7CBD34210020C428002095
:10E0F000102900208039020070B5054628881028B4
:10E1000002D011282CD115E01748006860B900F042
:10E110001DFE044600BF34B11448006818B1204603
:10E1200012490968884700BF0F480068401C0E4923
:10E13000086016E00C480068401E0B49086008465D
:10E14000006860B9FFF714F9044600BF34B107480E
:10E15000006818B1204605490968884700BF00E0FB
:10E1600000BF00BF70BD0000F8200020F420002098
:10E1700010B503460020072010BD000070B504460E
:10E1800000250548007800F0010018B1204600F095
:10E1900005F80546284670BDEC2000202DE9F04129
:10E1A000044600260025182C7DD2DFE804F00C1D63
:10E1B0001E68B4EEEDECEBEAE9E8E7E6E5E4E3E25D
:10E1C000E1E0DFDEDDDC00BFFD4801684FF49010C8
:10E1D000884300F49010FB4908600020091D086086
:10E1E00000BFF948047098E200BF00BFF44801681E
:10E1F0004FF48010884300F49010F249086000202A
:10E20000091D086000BFEF48001F006880F49010EF
:10E2100000F4003088B100BF4FF40030091F0860DF
:10E220000020091D086000BF022C02D14FF4E160FC
:10E2300001E04FF47A60054610E000BF4FF4003073
:10E24000E049091D08600020091F086000BF022C7A
:10E2500001D1C82001E04FF4C8700546DA480470C7
:10E260006420B5FBF0F0D949096800FB01F70022F2
:10E270003946D7480068FFF701FA06464DE200BF6D
:10E28000CF4801684FF48010884300F49010CD49C6
:10E2900008600020091D086000BFCA48001F006810
:10E2A00080F4901000E037E200F4003088B100BF45
:10E2B0004FF40030091F08600020091D086000BFEE
:10E2C000032C02D14FF4487001E04FF47A60054608
:10E2D00010E000BF4FF40030BA49091D086000206B
:10E2E000091F086000BF032C01D1C82001E04FF4D2
:10E2F000C8700546B44804706420B5FBF0F0B3491B
:10E30000096800FB01F700223946B1480068FFF7B1
:10E31000B5F9064601E200BFA94801684FF4801034
:10E32000884300F49010A74908600020091D086088
:10E3300000BFA448001F006880F4901000F4003073
:10E3400020B300BF4FF40030091F08600020091DF2
:10E35000086000BF042C02D14FF47A6001E04FF452
:10E360007A60054624E0CBE1C9E1B3E19DE187E1B4
:10E3700079E13FE13DE13BE139E137E12AE105E1C6
:10E38000EDE0D3E0BBE0A1E06CE022E000BF4FF4A1
:10E3900000308C49091D08600020091F086000BF7B
:10E3A000042C02D14FF4C87001E04FF4C870054648
:10E3B000854804706420B5FBF0F08449096800FBCF
:10E3C00001F70022394682480068FFF757F90646F0
:10E3D000A3E100BF7A4801684FF48010884300F43D
:10E3E0009010784908600020091D086000BF75483A
:10E3F000001F006880F4901000F4003080B100BF6E
:10E400004FF40030091F08600020091D086000BF9C
:10E41000052C01D1C82001E04FF47A60054610E0D8
:10E4200000BF4FF400306749091D08600020091F34
:10E43000086000BF052C01D1C82001E04FF4C8706E
:10E440000546614804706420B5FBF0F05F49096837
:10E4500000FB01F7002239465D480068FFF70EF91E
:10E4600006465AE100BF564801684FF480108843C1
:10E4700000F49010534908600020091D086000BF97
:10E480005048001F006880F4901000F4003040B144
:10E4900000BF4FF40030091F08600020091D08600C
:10E4A00009E000BF4FF400304649091D0860002014
:10E4B000091F086000BF44480470444800220168F6
:10E4C00043480068FFF7DAF8064626E100BF3C48FB
:10E4D00001684FF48010884300F4901039490860B7
:10E4E0000020091D086000BF00BF4FF40030086025
:10E4F0000020091F086000BF334804700DE100BF11
:10E500003049091F08684FF4003181432D4A1160DA
:10E5100000F40031121D116000BF2C480022016878
:10E520002B480068FFF7AAF80646F6E000BF254929
:10E53000091F08684FF400318143224A116000F43A
:10E540000031121D116000BF2048006800EB8001FF
:10E5500000221F480068FFF791F80646DDE000BF83
:10E560001849091F08684FF400318143154A1160AA
:10E5700000F40031121D116000BF14480022016830
:10E5800013480068FFF77AF80646C6E000BF0D4959
:10E59000091F08684FF4003181430A4A116000F4F2
:10E5A0000031121D116000BF0848006800EB8001B7
:10E5B000002207480068FFF761F80646ADE000005A
:10E5C000F020002008050050E4200020E820002072
:10E5D0006439020000BF4FF49010524908600020D7
:10E5E000091F086000BF5048047096E000BF00BFDC
:10E5F00000BF00BF4D480068FFF76CF80646C4F145
:10E6000011050DB306BB4FF4801049490860012D78
:10E610000FD9C82068436421B0FBF1F0454909686F
:10E6200000FB01F70022394640480068FFF726F852
:10E63000064600BF3E48006800F490103949086063
:10E640000020091F08600DE000BF3948006800F491
:10E6500090103449091F08600020091D086000BFA0
:10E660003349086059E000BF4FF490102D49091F4D
:10E6700008600020091D086000BF2B4804704CE0B2
:10E6800000BF4FF480102749091F08600020091DB2
:10E69000086000BF00BF4FF4003008600020091F71
:10E6A000086000BF2048047037E000BF4FF48010BE
:10E6B0001C49091F08600020091D086000BF00BF39
:10E6C0004FF4003008600020091F086000BF1648A2
:10E6D000047022E000BF4FF480101249091F086047
:10E6E0000020091D086000BF00BF4FF40030086023
:10E6F0000020091F086000BF0B4804700DE000BF38
:10E7000000BF4FF49010074908600020091F0860FF
:10E7100000BF0548047000E000BF00BF3046BDE800
:10E72000F08100000C050050E42000206839020050
:10E73000F0200020E82000204FF0FF31054A42F889
:10E740002010082804DBFF23A0F1080150325354A5
:10E7500070470000342900200146024850F821008B
:10E7600070470000342900202DE9F04F03460C4685
:10E770004FF0FF390AB1002000E0082084460AB1BA
:10E78000082000E00C208046614624E0154850F83F
:10E790002100401CF0B91D460846274616464FFA90
:10E7A00080FBDFF840A00AF1300A0AF805B0DFF874
:10E7B00034A04AF820704EB94FFA85FBA0F1080A40
:10E7C000DFF820E00EF1500E0EF80AB000BF4FFA4D
:10E7D00081F902E0491C4145D8D300BF4846BDE855
:10E7E000F08F000034290020014601484056704750
:10E7F000642900202DE9F84F3A48007800EB8001A9
:10E800003848001D00EB8104E668A06800EB40007A
:10E81000354901EB8000B0F80890A06800EB40009B
:10E8200001EB8000B0F80AA0A06800EB400001EB0B
:10E8300080004068009003F002FBB6FBF0F100FBA3
:10E84000116008B9012000E000208046009809FB13
:10E850000A0760883044A1884518002023490860D1
:10E86000B8F1000F04D003F0EAFA6188884209D0B9
:10E87000B8F1000F03D0BD4201D1A08810B1A0684B
:10E88000032809D103F0DBFAB6FBF0F01849086061
:10E89000032003F0D7FE22E003F0D1FAA18831442F
:10E8A000B1FBF0F200FB121080081249086003F07F
:10E8B000C6FAB5FBF0F100FB115008B9012000E0E9
:10E8C00000208346BD4206D0BBF1000F03D1B9B290
:10E8D000A8B204F003F9022003F0B4FE00BFBDE8C3
:10E8E000F88F0000AC290020782A00205821002051
:10E8F0005C2100205421002010B50848007800EB6E
:10E9000080010648001D00EB81042078042802D015
:10E9100000F0BAF801E004F059F810BDAC2900206D
:10E9200010B50F48007800EB80010D48001D00EB8A
:10E93000810460880B4908602078012804D00328EE
:10E9400005D0042809D105E004F040F806E0FFF7FF
:10E9500051FF03E004F0A4FE00E000BF00BF10BDC3
:10E96000AC2900206821002010B50348407808B188
:10E97000FFF7D6FF10BD0000AC290020002200EBFD
:10E980008003114901F8232000EB800301EB830190
:10E990004A80022200EB80030B4901EB83018A606D
:10E9A000002200EB8003084901EB8301CA6000EB01
:10E9B0008003054901EB83010A6100EB80030249F2
:10E9C00001EB83018A807047B02900202DE9F047D0
:10E9D00006460F4690469946DDF820A0204840782C
:10E9E0000A2839D01E4800781D49497844180A2C55
:10E9F00000D30A3C04EB84011948001D00F8216093
:10EA000004EB840100EB8100C0F8108004EB84016A
:10EA10001348001D00EB8100D7E90012C0E9021283
:10EA200004EB84010E48001D00EB8100A0F8029069
:10EA300004EB84010A48001D00EB8100A0F804A04B
:10EA400007484078401C064948700648007808B9D5
:10EA5000FFF766FF002500E004252846BDE8F087A3
:10EA6000AC2900205021002010B500200549087075
:10EA70004870002403E02046FFF780FF641C0A2C46
:10EA8000F9D310BDAC29002010B50848007800EB80
:10EA900080020648001D00EB82010020FEF748FDC1
:10EAA00000F006F8002003F0CDFD10BDAC290020D9
:10EAB00010B509490878FFF761FF07484078401E04
:10EAC0000549487008460078401CC0B208700A2802
:10EAD00001D10020087010BDAC2900202DE9F047BD
:10EAE00082461F480068002836D01D480068056827
:10EAF00003F02EFC07461B4804682146384604F004
:10EB000013F8C61C1848007808B903F033FCAE426D
:10EB100001D2284600E03046044424F07F442046D9
:10EB200003F010FC03F014FC80463946404603F025
:10EB3000FBFF00F103093946204603F0F5FF81454C
:10EB400009D903F005FC814603F0FCFB2F20FDF7FB
:10EB5000D9FC04F071F901E003F02AFCBDE8F0876C
:10EB6000782100207C210020902100200146088887
:10EB7000062808DB0888B0F5486F06DD08884FF6E0
:10EB8000FF72904201D0072070474888062808DBB2
:10EB90004888B0F5486F06DD48884FF6FF7290420E
:10EBA00001D00720F0E708884FF6FF72904208D0A6
:10EBB0004888904205D008884A88904201DD0720A5
:10EBC000E2E70020E0E72DE9F04106460D46144655
:10EBD00098462088801D404502D90C20BDE8F08170
:10EBE0003046FFF7C3FF074600BF0FB13846F5E7D1
:10EBF00000BF0520218868542088401C20801220F6
:10EC0000218868542088401C20802288511930882F
:10EC100004F040FD21880844208022885119708822
:10EC200004F038FD2188084420800020D6E7000049
:10EC300010B5044600BF04A24FF4A1712046FEF7B0
:10EC400012FC00BF10BD00002E2E5C2E2E5C2E2E5E
:10EC50005C6D61696E2E630030B587B01C2168461B
:10EC6000FDF7B7FC002000904FF4203001904FF4E6
:10EC70007020029003208DF80C000020ADF80E00EB
:10EC80008DF810000A4805900A4806906846FFF77C
:10EC900067F8044600BF25463DB100BF06A240F21A
:10ECA00059112846FEF7DFFB00BF00BF07B030BD9B
:10ECB000B917020031EC01002E2E5C2E2E5C2E2E98
:10ECC0005C6D61696E2E630038B51B4801F07CFDF8
:10ECD00020BB1A48007848B119484069E8B10020C3
:10ECE0000090174841696846884716E01548007843
:10ECF00010B91348456801E011488568002229468B
:10ED000011480068FEF7BAFC044634B10C4880692B
:10ED100018B10B4881692046884709E008484069D6
:10ED200030B101200090064841696846884700BF1D
:10ED300000200249087038BD282100203021002021
:10ED4000A8270020242100206C39020010B50122E0
:10ED500000210846FFF70CFA044600BF1CB1072C3F
:10ED600001D0204610BD00BF072202210120FFF77D
:10ED7000FFF9044600BF1CB1072C01D02046F1E783
:10ED800000BF042202210020FFF7F2F9044600BF71
:10ED90001CB1072C01D02046E4E700BF0020E1E7CA
:10EDA00070B503460C460820002117E001EB410531
:10EDB0000C4E06EB8505AD7A254075B14FF6FF7513
:10EDC000AB4206D001EB410506EB85052D899D423E
:10EDD00002D11160002003E00520491C0029E5D084
:10EDE00000BF70BD04290020012100EB40020D4B43
:10EDF00003EB820291724FF6FF7100EB400203EBCE
:10EE000082021181FF2100EB400203EB8202D172EA
:10EE100000EB40011A4602EB810100220A608A8061
:10EE20008A7170470429002010B51A48007800F054
:10EE3000080058BB18480068401C1749086017486C
:10EE4000006818B1042003F027FE21E001F0CEFC99
:10EE500018B1022003F020FE1AE01148006890B1BA
:10EE60000C48007800F0010048B90A48006840F0FA
:10EE7000010008490860002003F00EFE08E00320AE
:10EE800003F00AFE04E003F0DBFD01E003F0E8FD1F
:10EE900010BD00006C2100205C21002054210020C6
:10EEA0005821002010B50B48007800F0080070B918
:10EEB0000848007800F0020028B10648006840F0D9
:10EEC000010004490860022003F0E6FD01E003F0C0
:10EED000C7FD10BD6C2100202DE9FC4104460D4604
:10EEE000A1786A462B4802F0B9FE0746002F4ED1A2
:10EEF000607800EB4000284901EB8000807A00F048
:10EF00004000402801D0022D01D1244E04E0012D03
:10EF100001D1234E00E0234EA078C0EBC000224A6E
:10EF200002EB800100231C226846B0470746EFB978
:10EF3000022D1BD0607800EB4000174901EB8000E8
:10EF4000807A20F04000617801EB4101124A02EB27
:10EF5000810188726078C0EBC000144A02EB800126
:10EF60001C231A466846B047074600BF022D0ED044
:10EF7000207800EB40000E4901EB8000807A0D49BB
:10EF800051F82020214668469047074600BFBDE85B
:10EF9000FC8100003421002004290020012202000D
:10EFA000DD2002005D29020000280020C428002086
:10EFB000102900207039020070B503460A4648F255
:10EFC0004300002135E0C1EBC1041C4D05EB840476
:10EFD000A47EFF2C2CD11478022C18D0C1EBC104D4
:10EFE00005EB8404A47E24F00204C1EBC105134E9A
:10EFF00006EB8505AC76C1EBC104354605EB840410
:10F00000156825619588A5829579A5750DE0C1EBF8
:10F01000C1040A4D05EB8404A47E24F00104C1EB75
:10F02000C105064E06EB8505AC761970002002E09E
:10F03000491C0729C7D300BF70BD0000002800206D
:10F040002DE9F04105460E4617464FF0050800240D
:10F050001AE03DB9C4EBC4000E4901EB8000008BFF
:10F06000B8420CD07DB1C4EBC4010A4A02EB810165
:10F0700001F1100007222946FDF7B6FA18B93460ED
:10F080004FF0000802E0641C072CE2D300BF4046AA
:10F09000BDE8F081002800207CB50546A9B26A468B
:10F0A000074802F0DBFD044644B97421684602F0CB
:10F0B00027FE044614B9284602F040FD20467CBDD8
:10F0C000342100202DE9F04106460F46144600BFCA
:10F0D00025463DB100BF05A240F21F212846FEF79C
:10F0E000C2F900BF00BF0020BDE8F0812E2E5C2ECB
:10F0F0002E5C2E2E5C6D61696E2E63007FB5054619
:10F10000039502F0A1FE044600BF26463EB100BFB3
:10F1100029A240F239213046FEF7A5F900BF00BF11
:10F1200003A800F0BDFB044600BF26463EB100BF69
:10F1300021A24FF40F713046FEF795F900BF00BFD2
:10F140000020CDF805008DF809009DF8050020F09D
:10F150000100401C8DF805009DF8050020F002001C
:10F160008DF805009DF8050020F0700030308DF816
:10F1700005009DF8050020F080008DF805000721AE
:10F180008DF8061010218DF807100F48009001200F
:10F190008DF8040069460D4800F034FD044600BFB8
:10F1A00026463EB100BF04A240F24A213046FEF797
:10F1B0005AF900BF00BF7FBD2E2E5C2E2E5C2E2E76
:10F1C0005C6D61696E2E6300C5F001008020002037
:10F1D0002DE9F0478EB00446FF200C904FF0000957
:10F1E0004FF0000A00BFFE48007810B90EB0BDE82D
:10F1F000F08700BF00BFFB48006800B9F6E700BF1A
:10F200000BA800F041FB054600BF2E463EB100BFF3
:10F21000F54A40F6F1113046FEF725F900BF00BF70
:10F2200000270025201D09902C20ADF82800FF2084
:10F230008DF82E0000208DF82C000D9020881028CD
:10F2400013D0A0880DAA0221FFF7AAFD054665B9D3
:10F250000D9800EB4000E54901EB8000C07A8DF885
:10F260002E000D98C0B28DF82D00208819287DD071
:10F2700008DC10280DD0112879D0132878D0142854
:10F2800077D1C7E01A2875D01E2874D05228F7D13C
:10F29000C0E20DAE324601214FF6FF70FFF780FD50
:10F2A0008046B8F1000F08D10220316801EB41011E
:10F2B000CE4A02EB8101887201E04FF0040800BFE2
:10F2C0004546002D62D14FF0010911208DF8200034
:10F2D0000D98C0B28DF82D00A0880D9901EB410169
:10F2E000C24A02EB8101088102200D9901EB410124
:10F2F00002EB810188720D9800EB4000114601EB92
:10F300008001A2680A60A2898A80A07B8871E07D62
:10F3100000F0010060B1E07DB54901EB50000078DC
:10F32000FF280DD0E07D01EB500000780C9007E045
:10F330004FF6FF720CA904F10800FFF781FE0546A5
:10F3400025BBDDE90C0101EB4101A84A02EB81017B
:10F35000C8720D9800EB4000114601EB8000807AE6
:10F3600040F008000D9901EB410105E01AE10EE0C3
:10F3700099E05EE2E3E156E202EB810188720C98CB
:10F38000C0B28DF82E000BA8FEF78EFE52E20D984B
:10F3900000EB4000954901EB8000807A20F00200EC
:10F3A0000D9901EB4101914A02EB810188720D98A0
:10F3B00000EB4000114601EB8000807A00F008006D
:10F3C00008280ED10D9800EB400001EB8000807AF8
:10F3D00000F0800080280FD100210BA8FFF77CFDF2
:10F3E0000AE09DF82E00FF2806D09DF82E0002F0BE
:10F3F000A5FBFF208DF82E0010200D9901EB410197
:10F400007A4A02EB810188724FF0010912208DF8CF
:10F4100020000FE20D9800EB4000744901EB8000E2
:10F42000C07AFF2824D1228A0CA90020FFF708FE09
:10F430000546EDB9DDE90C0101EB41016B4A02EB38
:10F440008101C8720D9800EB4000114601EB80006D
:10F45000807A40F008000D9901EB410102EB810137
:10F4600088720C98C0B28DF82E000BA8FEF71CFE17
:10F470000D9800EB40005D4901EB8000C07AFF2849
:10F4800005D00D98C0EBC0005A4901EB800A0D99D8
:10F49000C1EBC101584B03EB8102A0880023514608
:10F4A00086DF0546C6E113208DF820000D9800EB9D
:10F4B00040004E4901EB8000807A40F004000D9935
:10F4C00001EB4101494A02EB810188724FF00109C9
:10F4D0000D9800EB4000114601EB8000C07AFF2838
:10F4E00042D10D9800EB400002EB80010CA8FFF721
:10F4F00063FD054665B90C98C0B28DF82E00DDE9B4
:10F500000C0101EB4101394A02EB8101C87202E0B2
:10F510002F464FF00109002004900D9800EB4000A9
:10F52000324901EB8000C07AC0EBC000324901EBE8
:10F53000800105910021069107910D98C0EBC00054
:10F540002C4901EB80000090002001900290039074
:10F55000A0886B46234A121D00217FDF054615B1A6
:10F560002F464FF000091CE00D9800EB40001F49AA
:10F5700001EB8000807A40F040000D9901EB4101E1
:10F580001A4A02EB8101887216208DF82000A088AB
:10F5900000231A4685217FDF054615B12F464FF01F
:10F5A000000947E10F48407A20F001000D494872F8
:10F5B0000D9800EB40000D4901EB8000807A20F0AF
:10F5C00004000D9901EB4101084A02EB81018872A8
:10F5D00014208DF820004FF00109207A20B30DE0AF
:10F5E0004021002010290020083A020004290020B0
:10F5F00041210020C4280020002800200D9800EBA5
:10F600004000114601EB8000807A00F04000402865
:10F6100009D00D9901EB410102EB8101C87AFFF796
:10F620003BFD0646277A89E0607AC0F38000E0B3AC
:10F630009DF82E00FF2838D00D9800EB40008C4933
:10F6400001EB8000807A40F008000D9901EB410148
:10F65000874A02EB81018872607BC0F3400088B169
:10F660009DF82E00C0EBC000824901EB8000807E37
:10F6700020F001009DF82E10C1EBC1017D4A02EB84
:10F68000810188760D9800EB4000794901EB8000FC
:10F69000C07AFF2852D00D9800EB400011F82000EE
:10F6A000022827D09DF82E0000E047E0C0EBC00004
:10F6B000704901EB80000D9901EB41016C4A02EBAE
:10F6C00081010A6802618A888282897981759DF840
:10F6D0002E00C0EBC000674901EB8000807E20F067
:10F6E00002009DF82E10C1EBC101624A02EB8101BC
:10F6F00088761FE00D98C0EBC0005F4901EB8000E9
:10F70000408A9DF82E10C1EBC1015A4A02EB8101DB
:10F7100008839DF82E00C0EBC000114601EB80006D
:10F72000807E20F001009DF82E10C1EBC10102EB9C
:10F730008101887601210BA8FFF7CEFB7AE0207AC1
:10F740000121B1EB101F43D1207A00F00F000128F6
:10F750003ED10D9800EB4000454901EB8000807AD6
:10F7600000F00800082833D10D9901EBC101434A8C
:10F7700002EB810101F108001A21FCF72AFF162093
:10F780008DF820000D9800EB4000394901EB800016
:10F79000807A40F020000D9901EB4101344A02EBE0
:10F7A000810188720D9800EB4000114601EB80004A
:10F7B000807A40F040000D9901EB410102EB81019C
:10F7C00088722F48407A40F002002D4948721DE0AF
:10F7D0000D9800EB4000264901EB8000807A40F054
:10F7E00080000D9901EB4101214A02EB81018872F1
:10F7F00015208DF820002248807A224A52F82010E5
:10F800000BA8884705460DB148F2410700274FF085
:10F8100001090FE01A48807A1A4A52F820100BA802
:10F820008847074606E013208DF820004FF00109B5
:10F8300000E000BF00BFB9F1000F17D03A4608A999
:10F840000BA8FDF765FE9DF8200012280ED100BF21
:10F850000D9800EB4000064901EB8000807A0128FA
:10F8600002D00D98FFF7C0FA00BF00BF00BFBDE493
:10F870000429002000280020C4280020E0280020BF
:10F880001029002090390200014611B948F20E00FB
:10F890007047FF20087048708870C8700020F7E734
:10F8A0007FB506461EB948F20E0004B070BD0024B4
:10F8B00012E02046002100EB4002344B43F82210B6
:10F8C00000EB400203EB8202517200EB400203EBBB
:10F8D0008202917200BF641C002CEAD0002403E075
:10F8E0002046FFF781FA641C002CF9D02421284817
:10F8F000FCF76FFE002406E0204602F01FF9FF200F
:10F9000024490855641C072CF6D37420ADF80C006C
:10F910000720ADF80E0020480290204902A802F00E
:10F9200055FB054625BB01201D490870307800BBFA
:10F9300000241BE0A1B26A46184802F08FF9054680
:10F940007DB9C4EBC401174A02EB810000231C22DD
:10F95000694602F0C1FA05463DB100201049087021
:10F9600006E000200E49087002E0641C072CE1D379
:10F9700009E0BDF80C00BDF80E20504381B20748E5
:10F9800002F0BEF9054628468FE700001029002046
:10F99000E028002041210020A9F9010034210020A5
:10F9A00040210020002800202DE9FF4F91B00F4694
:10F9B00092461D46DDF8789000BF8748006810B970
:10F9C00015B0BDE8F08F00BFB9F1740F00D9F7E7AB
:10F9D0004FF0010B0DA8FFF757FF064600BFB046DA
:10F9E000B8F1000F07D000BF7C4A40F2A151404659
:10F9F000FDF739FD00BF00BF00208DF834008DF801
:10FA000038000C95CDF82C90804614E01FFA88F150
:10FA100008AA734802F022F9064656B9082208A936
:10FA20001198FCF7E1FD20B908F0FF008DF83600D1
:10FA300004E008F10108B8F1070FE7D300BF9DF813
:10FA40003600FF2878D0032F0AD1B9F1740F03D103
:10FA500020208DF838009BE040208DF8380097E09A
:10FA60006048281A1C21B0FBF1F4072C1BD20AA80D
:10FA70000F90BAF1000F0ED19DF8360001218140A0
:10FA8000594A1268114009B1012100E0002111B961
:10FA90004FF0000B7CE09DF8360003F005FE2020BF
:10FAA0008DF8380074E05148281A1C21B0FBF1F49D
:10FAB000F4B90AA80F9020208DF83800E0B28DF834
:10FAC0003500002004904A490591C4EBC400474921
:10FAD00001EB800000909DF83600C0EBC00041496A
:10FAE00001EB80000190CDF830D020200B904FE04A
:10FAF0004048281A2421B0FBF1F4F4B930208DF8E5
:10FB00003800E0B28DF8350001208DF8370004EBA5
:10FB10004400394901EB8000807A00F0020002289D
:10FB200036D09DF8351001EBC101324A02EB81005D
:10FB30002421FCF74EFD2BE04CE04FF0000B402061
:10FB40008DF838002D48854203D103274FF0010B73
:10FB50001EE09DF836002A4951F82000A84217D12E
:10FB60004FF0010B0AA80F9000200EE09DF8361010
:10FB700000EB4002204B03EB8202D27A914203D188
:10FB8000C1B28DF8351002E0401C0028EED000BF55
:10FB9000BBF1010F1ED1032F06D19DF8380040F0B4
:10FBA00003008DF838000EE0022F06D19DF83800D2
:10FBB00040F001008DF8380005E09DF8380040F075
:10FBC00002008DF838000AA80F9052460EA90DA821
:10FBD000FDF79EFC00BFF3E610290020083A020062
:10FBE00034210020002800203C210020C4280020CF
:10FBF0001C290020E028002004290020A039020050
:10FC0000E427002010B5024600BF2848007810B94C
:10FC100048F2080010BD00BF12B948F20E00F9E723
:10FC200011B948F20E00F5E7086810B948F20E0065
:10FC3000F0E71F48006898BB1D4C0868206020460C
:10FC4000D1F8054044604C7A04720879184CA072CF
:10FC50002046007A20F0010415480472007A20F052
:10FC60000200801C124C20722046007A20F004040E
:10FC70000F480472C07920F00100401C0C4CE07168
:10FC80002046C07920F00200801CE0712046C07937
:10FC900020F004040648C47100201070002302E024
:10FCA000FFE748F204031846B4E7000040210020B3
:10FCB00010290020014614480078144A1278904216
:10FCC0001DD011480078401C0F4A10701046007873
:10FCD000022801D1002010700D480B4A127850F80C
:10FCE000220008600B4A086812681044094A106034
:10FCF0001046006820F07F4010600120704700200F
:10FD0000086000BFFAE70000882100208921002058
:10FD1000802100207C21002010B50C48007800F0E4
:10FD2000080078B90A480068401C0949086000F0DA
:10FD30005DFD10B9FEF7E0FD06E00648007802F030
:10FD400081FC01E001F01CF910BD00006C210020D5
:10FD50005C2100205021002013480078062820D183
:10FD60001148001D007800F00F00D0B90E4808308F
:10FD7000007800F0F000302801D1012070470A48D7
:10FD80000830007800F0F000402801D10120F5E7AC
:10FD900005480830007800F0F000502801D101201B
:10FDA000ECE70020EAE70000E00F00F00A480078E6
:10FDB00006280ED10848001D007800F00F0040B959
:10FDC00005480830007800F0F000302801D101200B
:10FDD00070470020FCE70000E00F00F013480078B7
:10FDE000062820D11148001D007800F00F00D0B97E
:10FDF0000E480830007800F0F000302801D10120D2
:10FE000070470A480830007800F0F000402801D11F
:10FE10000120F5E705480830007800F0F000502890
:10FE200001D10120ECE70020EAE70000E00F00F03C
:10FE30000A48007806280ED10848001D007800F016
:10FE40000F0040B905480830007800F0F000302875
:10FE500001D1012070470020FCE70000E00F00F016
:10FE600013480078062820D11148001D007800F0C2
:10FE70000F00D0B90E480830007800F0F0003028AC
:10FE800001D1012070470A480830007800F0F000E6
:10FE9000402801D10120F5E705480830007800F03E
:10FEA000F000502801D10120ECE70020EAE7000033
:10FEB000E00F00F00A48007806280ED10848001D1F
:10FEC000007800F00F0040B905480830007800F0D5
:10FED000F000302801D1012070470020FCE700002D
:10FEE000E00F00F00A48007806280ED10848001DEF
:10FEF000007800F00F0040B905480830007800F0A5
:10FF0000F000302801D1012070470020FCE70000FC
:10FF1000E00F00F00A48007806280ED10848001DBE
:10FF2000007800F00F0040B905480830007800F074
:10FF3000F000502801D1012070470020FCE70000AC
:10FF4000E00F00F0F0B5034600241FE0124E3068C9
:10FF500006689E4203D90668F61A06601AE006682B
:10FF60009B1B06683444002606600B4E35680A4F1A
:10FF7000C6693E60C66846B10E1926F07F464660E7
:10FF8000C66886601668C661156000BF02480068D2
:10FF90000028DBD100BFF0BD7821002030B5044639
:10FFA0001088C01C984201D90C2030BD0220158851
:10FFB00048551088401C108001201588485510882D
:10FFC000401C108015884C551088401C1080002063
:10FFD000EBE738B500200090684601F029FE0446A2
:10FFE000082C02D00CB1012038BD082C06D168467F
:10FFF00000F070F804460CB10020F5E7009808B155
:020000040002F8
:100000000120F1E70020EFE710B5044614B1112CF0
:1000100008D100E00AE00648006840F00800044902
:10002000086003E02046FDF79BFA00BF00BF10BD4B
:100030006C21002010B50D480068401C0B49086079
:10004000B0F57A7F0DD00A480078022804D008481D
:10005000007802F0F7FA07E00648007802F01CFD8D
:1000600002E00D20FDF77CFA10BD000060210020A9
:10007000502100205121002010B50A4800780128A5
:1000800004D0022808D0032809D102E002F0A4FC21
:1000900006E0FFF741FE03E002F0F2FC00E000BFE3
:1000A00000BF10BD5021002070B50446204628DF57
:1000B0000546FFF7A9FF70BD2DE9F04104460D4646
:1000C000164632462946204629DF0746FFF79CFFA1
:1000D000BDE8F081014609B9032070470248406D30
:1000E00008600020F9E70000002B00203EB500BFAB
:1000F0009DF8000020F00F00401C00909DF80000CB
:1001000020F0F0001030009000BF112217A16846C7
:100110007CDF044600BF25463DB100BF18A24FF466
:1001200088712846FDF79FF900BF00BF00200190AD
:1001300002900C20ADF804002020ADF8060000204D
:10014000ADF808004FF4C870ADF80A0001A87ADFD6
:10015000044600BF25463DB100BF09A24FF48D7192
:100160002846FDF780F900BF00BF3EBD4A6F686EAC
:10017000436F756761724D656C6C656E630000005E
:100180002E2E5C2E2E5C2E2E5C6D61696E2E630011
:1001900001460020704702460020704702460020BA
:1001A000704700002DE9F04104460027B8460026BC
:1001B000607800EBC000374901EB8000406848B32D
:1001C000607800EB4000344901EB8000807A00F059
:1001D000800080281ED1607800EB400001EB800099
:1001E000807A00F04000402814D0607800EBC00016
:1001F000284901EB800000F10807607800EBC0009F
:1002000001EB800080881FFA80F8607800EBC00066
:1002100051F82060617801EB41011F4A02EB810136
:100220000889334642463946A9DF05460B2D0CD1D5
:100230000126617801EB4101174A02EB810108892F
:10024000334642463946A9DF05460DB148F241051D
:10025000012E1BD1617801EB41010F4A02EB8101B4
:1002600008894FF6FF720C21A7DF054675B143F2EE
:100270000200854208D0082D06D0801C854203D09C
:10028000112D01D0002501E048F241052846BDE8C6
:10029000F0810000E02800200429002070B5054608
:1002A0000C46617801EBC1010E4A02EB8100382354
:1002B0002422294601F010FE064686B9607800EB3C
:1002C000C000084901EB80004068401C38B900209C
:1002D000617801EBC101034A02EB810148603046BD
:1002E00070BD0000E02800202DE9F04188B00746ED
:1002F0000C4603261A200790617801EB4101324A2F
:1003000002EB81010889334607AA6946AADF8046C5
:10031000B8F1000F54D1617801EBC1012B4A02EB17
:10032000810101F10800BDF81C206946FCF75CF969
:10033000A0B9607800EB4000234901EB8000807A8F
:1003400000F0020002283BD0617801EBC1011F4A96
:1003500002EB81002421FCF73CF931E0607800EBEE
:10036000C0001A4901EB8000406808B1184D00E058
:10037000184D607800EBC000144941F82060BDF8CA
:100380001C00617801EBC101104A02EB8101486059
:10039000617801EBC10102EB810101F10800BDF8B8
:1003A0001C206946FCF7FCF8607800EBC000074AA7
:1003B00002EB8001382324223846A847804600BF3C
:1003C000002008B0BDE8F08104290020E0280020CA
:1003D00001220200DD20020070B505462846FFF725
:1003E000E1FE044614B900BF00200446204670BD5B
:1003F00070B505460E4631462846FFF74FFF0446C6
:1004000014B900BF00200446204670BD70B50546F3
:100410000E4631462846FFF767FF044614B900BF71
:1004200000200446204670BD10B51648007800F044
:10043000080018BB00F006FA60B1002012490860FD
:100440001048006840F001000E490860002002F0EA
:1004500023FB15E000F0CAF930B100200A4908601A
:10046000022002F019FB0BE00848006818B10320D5
:1004700002F012FB04E002F0E3FA01E002F0F0FA0D
:1004800010BD00006C2100205421002058210020C4
:10049000F7B50C4615466946204600F06BFF064648
:1004A00026B1224606A10020FCF7CFFA1DB1204656
:1004B00000F0C6FF02E0204600F056FFFEBD00003F
:1004C0006572726F7220696E697469616C697A69AC
:1004D0006E672070696E2025640A00000EB5372013
:1004E0008DF808000020012302AA292100903A4833
:1004F00001F022F801230DF109022921364801F00B
:1005000005F89DF8092035A10020FCF79EFA39A0D6
:10051000006801900020022301AA292100902E48A2
:1005200001F00AF89DF8090080281EDB01203249FD
:1005300008700F2000F084FF30A10020FCF778FA4B
:100540003E208DF8080001208DF8090000200223CC
:1005500002AA29210090204800F0EEFF9DF8092012
:1005600029A10020FCF771FA35E09DF80900402828
:1005700031DB9DF8090080282DDA00201E49087023
:100580000F2000F0F1FE25A10020FCF751FA3E20DB
:100590008DF8080000208DF80900022302AA292105
:1005A00000900D4800F0C8FF0020012302AA292175
:1005B0000090094800F0C0FF012302AA2921064843
:1005C00000F0A4FF9DF8082017A10020FCF73DFAD9
:1005D0000320FDF781FA0EBD14390200616E792007
:1005E0006F72206E6F206D6F74696F6E203D2025D5
:1005F000640A00003F400000DC2000206E6F206D88
:100600006F74696F6E0A000073686F756C642062A6
:10061000652030312025640A00000000616E7920D9
:100620006D6F74696F6E0A0073686F756C64206219
:10063000652030302025640A00000000F8B5254808
:10064000007800B9F8BD2448006808B9012000E02E
:10065000002005462148006808B9012000E000207C
:10066000064600BF9DB9684652DF0446052C01D1FD
:1006700001250BE034B100BF194A93212046FCF755
:10068000F2FE03E0144900980968884700BFCEB91C
:1006900014480088009069461348006861DF0446EA
:1006A000052C01D101260CE034B100BF0C4AB22167
:1006B0002046FCF7D8FE04E00B48006807490968AB
:1006C000884700BF0DB106B100E0CBE700BF00BF17
:1006D000B8E7000098210020A8210020A4210020D4
:1006E000543A0200A02100209C2100207FB505463D
:1006F0000C4694F8210094F82010CDE9001004F184
:100700002602D11E2846E36902F0EDFC00B17FBD50
:1007100094F8230048BB207B022802D0207B0328CA
:1007200023D1E169206981421FD16069E061E07BEA
:1007300084F82000207EC0F3401084F82100207B44
:1007400003280AD194F82100009094F8203029461B
:100750002046E26902F058FD33E094F82030294643
:100760002046E26902F048FC2BE0D4E90412E0687C
:1007700001AB07C394F82300A0B100BFD5F8C4149F
:10078000C5F8C41400BF084600F0020119B10121E8
:100790008DF8001005E000F0040111B102218DF880
:1007A000001002E000208DF80000002084F82400F2
:1007B000207E00F0040018B96846D4E90021904773
:1007C00000BF00BFA3E7000001464888064A128820
:1007D000904206DB4888044A5288904201DC01209E
:1007E00070470020FCE700001C2100202DE9F041AB
:1007F0001148007800EB80010F48001D00EB8105D7
:10080000EF6801F01CFB69883944AA881144491E2D
:10081000B1FBF0F609480068B04206D3074800680B
:10082000B04204D10648006808B9012400E0002461
:100830002046BDE8F0810000AC2900205C210020AA
:10084000582100202DE9F0410F48007800EB80018D
:100850000D48001D00EB8105EE6801F0F0FA698893
:100860003144AA881144491EB1FBF0F707480068DB
:1008700028B107480068B84201D1012400E00024F3
:100880002046BDE8F0810000AC290020582100205E
:100890005C210020014601F0030008B901207047E7
:1008A0000020FCE730B504461088C01C984201D9EE
:1008B0000C2030BD0220158848551088401C10803F
:1008C0001C20158848551088401C1080012C06D02B
:1008D000022C08D0032C0AD0042C10D10BE00020ED
:1008E000158848550DE001201588485509E002207B
:1008F0001588485505E003201588485501E0072074
:10090000D7E700BF1088401C10800020D1E700000E
:100910002DE9F0412148D0F80080214806782FE0E9
:100920002048006800EBC604257825E005EB45016A
:10093000606800EBC107681CC5B2A078A84200D16E
:1009400000253878022802D0032812D103E0786805
:1009500002F090F90EE007E01049086800210174E8
:100960000E4AC169116000BF0C4800680028F3D12D
:1009700000E000BF00BF00BF6078A842D6D100BF32
:10098000301EA6F10101CEB2CAD10448006840452C
:1009900002D00120BDE8F0810020FBE77821002093
:1009A00070210020742100202DE9F04706463B48C5
:1009B000D0F800903A48077861E03A48006800EBC8
:1009C000C70555E016B13446E66923E02A7802EB04
:1009D0004202696801EBC2002978491C2970297814
:1009E000AA78914201D10021297044680178012937
:1009F00001D1217C01B13BE081686160C168A160E7
:100A00000169E1604169A1612749097809B10021C3
:100A1000616000BF254960680968401A20F07F4086
:100A20002349884208D221496068096802F07CF8AD
:100A3000A1680844206010E01C486168006802F06A
:100A400073F88046A068404504D9A068A0EB080070
:100A5000206001E00020206000BF00206060A060F6
:100A6000012020740020E061204602F0CFF800BF92
:100A7000002EA7D1287869788842A3D100BF381EFC
:100A8000A7F10101CFB298D104480068484502D0CF
:100A90000120BDE8F0870020FBE70000782100205E
:100AA0007021002074210020912100207C21002051
:100AB000FFFF7F0086B000F04DFC10B900F020FC75
:100AC0000446082C03D1F1A10020FBF7B1FFF44844
:100AD00000680590012208210598FFF7D9FC012242
:100AE00003210598FFF7D4FC012207210598FFF7A1
:100AF000CFFC0122EB4801680598FFF7C9FC0022F2
:100B0000E94801680598FFF7C3FC0122E74801683E
:100B10000598FFF7BDFC0122E54801680598FFF73D
:100B2000B7FCDF48001D00680490E24A04A9E248CF
:100B3000006800F079FB04461CB1E0A10020FBF73F
:100B400077FF0121DC48006800F012FB4FF4FA70D7
:100B500000F0CBFA02F00EFA06461EB1DFA100202B
:100B6000FBF766FFE1A00068039003AF0DF10808F2
:100B7000002002233A4629210090DD4800F0DCFCE9
:100B80000546032D03D1DBA10020FBF751FF002018
:100B900001233A4629210090D54800F0CDFC0546B6
:100BA000032D03D1D6A10020FBF742FF01234246CB
:100BB0002921CF4800F0AAFC0546032D03D1D3A17B
:100BC0000020FBF735FF07208DF80C0001208DF881
:100BD0000D00002002233A4629210090C44800F06D
:100BE000ABFC002001233A4629210090C04800F0C8
:100BF000A3FC012342462921BD4800F087FC0820C0
:100C00008DF80C00002001233A4629210090B848B5
:100C100000F092FC012342462921B54800F076FC01
:100C20009DF80820BCA10020FBF70FFF10208DF8D5
:100C30000C00C0208DF80D00002002233A46292127
:100C40000090AB4800F078FC002001233A462921AF
:100C50000090A74800F070FC012342462921A448D7
:100C600000F054FC9DF80820AEA10020FBF7EDFE3B
:100C70000F208DF80C00002002233A462921009015
:100C80009B4800F059FC002001233A46292100909E
:100C9000974800F051FC012342462921944800F076
:100CA00035FC9DF808209FA10020FBF7CEFE112007
:100CB0008DF80C0012208DF80D00002002233A461A
:100CC000292100908A4800F037FC002001233A4691
:100CD00029210090864800F02FFC0123424629215B
:100CE000834800F013FC9DF8082091A10020FBF739
:100CF000ACFE12208DF80C001C208DF80D00002099
:100D000002233A4629210090794800F015FC002082
:100D100001233A4629210090754800F00DFC01237B
:100D200042462921724800F0F1FB9DF8082083A17A
:100D30000020FBF78AFE16208DF80C0035208DF878
:100D40000D00002002233A4629210090684800F057
:100D5000F3FB002001233A4629210090644800F06B
:100D6000EBFB012342462921614800F0CFFB9DF8AF
:100D7000082075A10020FBF768FE15208DF80C00F7
:100D800012208DF80D00002002233A462921009000
:100D9000574800F0D1FB002001233A46292100905A
:100DA000534800F0C9FB012342462921504800F076
:100DB000ADFB9DF808205EA10020FBF746FE072052
:100DC0008DF80C0000208DF80D0002233A462921F1
:100DD0000090474800F0B0FB002001233A4629214B
:100DE0000090434800F0A8FB0123424629214048D7
:100DF00000F08CFB3D208DF80C000C208DF80D00D0
:100E0000002002233A4629210090394800F094FB43
:100E1000002001233A4629210090354800F08CFB40
:100E2000012342462921324800F070FB9DF808005A
:100E30000C2803D147A10020FBF7FAFD02F002F8CD
:100E4000FDF7ACF85046FEF759F9FFF74FF901F0FE
:100E5000F1FBFCF7B7FAFDF7FFFEFCF77FFC032080
:100E6000FCF73AFE044600BFA146B9F1000F07D0D7
:100E700000BF3FA240F287314846FCF7F4FA00BFBA
:100E800000BF00BF00F0BCFEFCE700004E52465F12
:100E9000494E56414C49445F53544154450A000061
:100EA00034390200C4200020C8200020D0200020B7
:100EB000CC200020DD040200D4200020696E74657F
:100EC00072727570742070696E206E6F7420696E16
:100ED000697469616C697A65640A0000693263202B
:100EE000696E6974204552524F520A003E0100005B
:100EF000143902006932634572726F7220310A0040
:100F00006932634572726F7220330A006932634539
:100F100072726F7220340A003031203D2025640A3D
:100F2000000000004330203D2025640A000000003E
:100F30003132203D2025640A000000003143203D6D
:100F40002025640A000000003042203D2025640A6C
:100F5000000000004D61696E20424E4F3035352053
:100F6000696E697469616C697A65640A00000000E1
:100F70002E2E5C2E2E5C2E2E5C6D61696E2E630013
:100F800010B50548006820F00800034908600348D0
:100F9000007801F057FB10BD6C210020502100208B
:100FA0002DE9F04105460E4614469846A888871C50
:100FB0002088801C3844404502D90C20BDE8F081CF
:100FC000FE2F01D90C20F9E7781C21887054208865
:100FD000401C2080FF20218870542088401C2080E5
:100FE00022889119288802F055FB21880844208026
:100FF000A88800280DDDA86808B90720DEE7AA88C0
:1010000023889819A968FBF7CBFA2088A988084497
:1010100020800020D2E72DE9F84F05460F46144600
:1010200098462878012804D1687810B90720BDE8CF
:10103000F88F2088801C404508D82878012807D1DF
:101040002088801C69780844404501D90C20EEE7CF
:101050002088A8EB0000801E86B200962188891C9B
:10106000C81969467DDF814600BFB9F1000F01D084
:101070004846DCE700BF2878022806D1BDF800000A
:10108000B04202DC4FF0090A0BE04FF0080A287862
:10109000012805D16878B04202DC6878009000E051
:1010A0000096BDF80000FE2801D90C20BFE7BDF86E
:1010B0000000401C218878542088401C2080208813
:1010C00007F800A02088401C20802088BDF8001070
:1010D000084420800020AAE701460020704702460D
:1010E0000020704702460020704701B506E00098D6
:1010F000401E009040F2E730FBF78CF90098002882
:10110000F5D108BD70B50B4601461A46002907DA2D
:101110005407260E104C01F00F052D1F665503E0F5
:101120005407250E0D4C655400BF00BF00F01F0290
:10113000012191400A4A440942F8241000BF00BF2F
:1011400000F01F02012191404209920002F1E022C9
:10115000C2F8001100BF70BD18ED00E000E400E02F
:1011600080E200E00146C1F3073250B27047000050
:101170002DE9F04705460E46284600F01FFDF8B160
:101180002846FDF731FB083824490F5CBC11032CBD
:101190000BD100BF224800680121A940084008B1D6
:1011A000032000E00220804605E0012C01D102204E
:1011B00000E0032080464146284600F00BFA2AE072
:1011C000284600F007FD30B32846FDF70DFB044626
:1011D000A00000F5807087B22046124951F8201017
:1011E00041F001020F4941F8202000BF384600F0CD
:1011F00029FA7EB12846FDF7F7FA8146FDF7ACFAE9
:101200008046B8F1000F04D0012101FA04F000F08B
:1012100033FA00BF00BFBDE8F0870000842900203A
:1012200010050050106500402DE9FC4704460E46AD
:1012300017464FF00008204600F0B2FC10B14FF006
:10124000080851E0F27839462046FDF78DFA054648
:10125000681C002845D0B07860B100BFA10001F142
:10126000A041D1F8001721F00200214941F82400E3
:1012700000BF0CE096F80190002000904B4602461B
:1012800001460190204600F093F900BF00BFF078BE
:10129000D0B13078174951F82510174A1140154A36
:1012A00042F82510114651F825104FF4F85202EA81
:1012B00004224FF4403303EA00431A4311430D4A1A
:1012C00042F8251000BF0EE0A5F108000B49085CAC
:1012D000317840EA811042B2A5F1080007490A546A
:1012E00001E04FF0040800BF4046BDE8FC87000065
:1012F0000007005010650040FFE0FCFF842900203B
:1013000010B5134890F8540008B1082010BD00240F
:1013100004E0204600F06EFC601CC4B2202CF8DB18
:10132000002404E02046FDF707FA601CC4B20C2C30
:10133000F8DB06210846FFF7E5FE4FF0004000F01D
:101340009BF90120024981F854000020DEE70000EB
:1013500034290020034890F8540008B10120704758
:101360000020FCE73429002010B50446204600F098
:1013700043F910BD2DE9FC4104460E4600272046E6
:101380002C490956491C09B1012100E0002109B18D
:1013900008274BE0B07860B3012200212046FDF71A
:1013A000E3F90546681C10B330787178224A52F888
:1013B0002520224B1A40204B43F825201A4652F88C
:1013C00025304FF4F85202EA04224FF4403C0CEA74
:1013D000004C42EA0C024FF4801C0CEA015C42EA29
:1013E0000C021343144A42F8253000BF00E00427E2
:1013F00005E000BFFE210F48015500BF00BFAFB997
:101400007078012803D1204600F006F902E020465A
:1014100000F0F2F800BF00200090034601221146C0
:101420000190204600F0C4F800BF00BF3846BDE878
:10143000FC8100006429002010650040FFE0ECFF03
:1014400010B50446204600F0E7F810BD027902EB23
:101450008202064B03EBC201026800BF0523C2F8FB
:10146000003500BF022281F822207047902A002018
:101470002DE9F04706460C4617469846307900EBB2
:1014800080001F4901EBC00595F8220010B108202B
:10149000BDE8F0871CB930791A4901EB00142F60C0
:1014A000C5F804800020A86085F8250085F8240090
:1014B0002146304601F014FD40F20C6112482268CA
:1014C00040F82210626840F822103068D4E9001217
:1014D000C0F80815C0F80C2500BFA168C0F8241595
:1014E00000BF286830B13068FFF73CFE8146217BA1
:1014F000FFF708FE012085F822000020C8E7000061
:10150000902A0020CC39020000070050FEB50746A3
:101510000C4615461E46074A07CA8DE807008DF897
:1015200001408DF80260019500226946384600F0BE
:1015300021F8FEBDEC3902002DE9FE4307460C46BA
:1015400015461E46DDF8288000200090019002908C
:101550008DF801408DF802600195B8F1000F01D0BF
:10156000202000E0002002466946384600F002F8DC
:10157000BDE8FE832DE9F04104460E4615460027DE
:10158000207900EB8000094901EBC00805F0030059
:1015900010B10620BDE8F0812B4632464046216856
:1015A00001F088FE07463846F4E70000902A002044
:1015B000F0B5DDE9054541EA420646EA830646EA1A
:1015C000042646EA0547024E46F82070F0BD0000AA
:1015D00000070050074A52F8202022F44033054A01
:1015E00042F8203052F8202042EA0143014A42F8F2
:1015F000203070470007005001218140014A1160EE
:10160000704700000C05005001218140014A116023
:10161000704700000C05005001218140014A116013
:10162000704700000805005001218140014A116007
:101630007047000008050050014601480844704703
:101640000060004038B504462046FFF7F5FF002152
:1016500001602046FFF7F0FF0068009000BF38BD32
:1016600010B504462046FFF7E7FF0068012800D1C7
:1016700010BD0020FCE70000014908607047000031
:10168000046300400246505808B101207047002012
:10169000FCE7002242507047C0F808137047C0F8BA
:1016A00004137047C0F8001270470122425070477F
:1016B0000146D1F88004C1F88004704702465058B2
:1016C00008B1012070470020FCE70022425070471B
:1016D000C0F8081370470246D2F80403084008B166
:1016E000012070470020FCE701224250704701466C
:1016F000D1F88004C1F8800470470246505808B100
:10170000012070470020FCE700224250704701464C
:1017100040F23C504058704770B5054695B1032DD6
:1017200011D10220FCF72AFD044600BF26463EB137
:1017300000BF06A24FF4C4713046FBF794FE00BF11
:1017400000BF01E000E000BF00BF70BD2E2E5C2E88
:101750002E5C2E2E5C6D61696E2E630070B50546A1
:101760002888102802D0112819D113E00720FCF78F
:1017700005FD044600BF26463EB100BF09A240F267
:101780009F113046FBF76FFE00BF00BFA8880949D4
:10179000088005E04FF6FF700649088000E000BFB2
:1017A00000BF70BD2E2E5C2E2E5C2E2E5C6D6169EE
:1017B0006E2E63008220002070B50546287880B91F
:1017C0003B210848008876DF044600BF26463EB12C
:1017D00000BF05A240F237113046FBF744FE00BFC0
:1017E00000BF70BD822000202E2E5C2E2E5C2E2E7F
:1017F0005C6D61696E2E630010B504460349A268F2
:101800000A60E0684860FDF75FFA10BD28210020FB
:1018100010B50446A088084908800849A2690A60F2
:10182000E06948600020064908700648C08908B988
:10183000FDF74AFA10BD00002621002028210020D3
:1018400024210020A827002070B505464FF6FF7020
:101850000949088000200949087009480068FBF719
:1018600039FF044634B10748806918B105488169D9
:101870002046884770BD000026210020242100203A
:101880006C390200A827002070B50546AC1D2088E1
:101890001149C98988421DD1608902281AD100BF27
:1018A00000BF217B627B41EA0221084600F0010172
:1018B00011B1FDF709FA0DE008480068FBF70AFFCF
:1018C000064636B10448806918B10348816930463C
:1018D000884700BF70BD0000A82700206C390200B7
:1018E00070B59CB00546574B0FCB17AC0FC44BF6E9
:1018F000EF60ADF86C00A11C17A863DF044600BFC1
:10190000264636B100BF50A249213046FBF7ABFD59
:1019100000BF00BF1C2110A8FAF75BFE9DF8400035
:1019200020F00200801C8DF840009DF8400020F05F
:10193000080008308DF8400000200F9000BF9DF88F
:101940003C0020F00F00401C8DF83C009DF83C004E
:1019500020F0F00010308DF83C0000BF00BF9DF873
:101960003D0020F00F00401C8DF83D009DF83D002B
:1019700020F0F00010308DF83D0000BF9DF83E00D3
:1019800020F00600801C8DF83E000FA815909DF8F1
:10199000400020F0100010308DF8400000200E9024
:1019A0009DF83A0020F00600801C8DF83A0000BF38
:1019B0009DF8380020F00F00401C8DF838009DF88D
:1019C000380020F0F00010308DF8380000BF00BF64
:1019D0009DF8390020F00F00401C8DF839009DF86B
:1019E000390020F0F00010308DF8390000BF1421CC
:1019F00009A8FAF7EEFD1BA809900EA80A9014207A
:101A0000ADF83000ADF82C001C2102A8FAF7E1FD7A
:101A10000C4810300068019001A80D9068882B1DBB
:101A200009AA10A9A2DF044600BF264636B100BFAE
:101A300005A271213046FBF716FD00BF00BF002054
:101A40001CB070BD403902002E2E5C2E2E5C2E2E56
:101A50005C6F75725F736572766963652E630000F3
:101A600070B586B00546174B0FCB01AC0FC44FF2D3
:101A70000D00ADF81400A11C01A863DF044600BFEF
:101A8000264636B100BF10A285213046FBF7EBFC9D
:101A900000BF00BF4FF6FF702880AA1C05A90120D7
:101AA000A0DF044600BF264636B100BF06A28E2145
:101AB0003046FBF7D8FC00BF00BF2846FFF710FFF9
:101AC00006B070BD543902002E2E5C2E2E5C2E2ED8
:101AD0005C6F75725F736572766963652E63000073
:101AE00030B585B004460D4620884FF6FF71884218
:101AF00016D01420049000200090019002900390D2
:101B0000A088ADF8000001208DF802000020ADF89B
:101B1000040004A80290039520886946A6DF00BF50
:101B200005B030BD0246002104E0505C08B1012040
:101B30007047491C0629F8D30020F9E710B5044680
:101B4000C4EBC400144901EB80000021401C01617A
:101B50008182C4EBC401104A02EB81001021FAF724
:101B600038FDFF20C4EBC4010B4A02EB810108746D
:101B7000C4EBC40102EB810188764FF6FF70C4EB21
:101B8000C40102EB81010883204601F08DFD002095
:101B9000024941F8240010BD00280020E42700205D
:101BA000014605484056012202EBE07008B10120D1
:101BB00070470020FCE7000064290020014604482B
:101BC0004056082801DB012070470020FCE7000098
:101BD00064290020014606484056002805DB0448D9
:101BE0004056082801DA012070470020FCE7000079
:101BF00064290020FF2201490A547047642900200B
:101C000070B548DF044600BF25463DB100BF04A2C1
:101C100040F285212846FBF726FC00BF00BF70BDBF
:101C20002E2E5C2E2E5C2E2E5C6D61696E2E630056
:101C3000014600BF0748007800F0040008B90820FA
:101C4000704700BF09B90E20FAE7034840780860E2
:101C50000020F5E76C210020AC2900207CB503466C
:101C600000BF2548007800F0040008B908207CBDBA
:101C700000BF0BB90E20FAE70AB90E20F7E7186883
:101C8000022806D2186800EB40001C4C54F82000D3
:101C900008B90720EBE7D3E90004CDE90004019877
:101CA0001C6804EB4404154D05EB8404248901FBF6
:101CB00004000190009800EB40002C4604EB8000EB
:101CC0004068009C04EB440405EB84046489009D97
:101CD00005EB4505094E06EB85052D8904FB05003E
:101CE000019CA04201D80720C1E7DDE90004C2E958
:101CF00000040020BBE700006C210020782A0020AF
:101D00002DE9F84304460D4600BF4348007800F033
:101D1000040010B90820BDE8F88300BF0CB90E20FC
:101D2000F9E72068022806D2206800EB40003B4912
:101D300051F8200008B90720EDE7206800EB4000CB
:101D4000364901EB80004068216801EB4101334ACC
:101D500002EB81014989226802EB42022F4B03EB1F
:101D60008202128901FB02006168884201D80720C3
:101D7000D1E76068FEF78EFD08B91020CBE7D4E903
:101D8000001001EB4101254A02EB81014968401A2C
:101D9000216801EB410102EB81010989B0FBF1F2FD
:101DA00001FB120008B10720B5E7206800EB4000F6
